{
  "transactions": [
    {
      "hash": "0x204102fc1914f62e9a527d6146a354cd8e6b388b2d699fc7996f5ca6a3dc79a2",
      "transactionType": "CALL",
      "contractName": null,
      "contractAddress": "0xf76311bb777bc00fde091b71919ed14738c2ca46",
      "function": "mint(address,uint256)",
      "arguments": [
        "0xdF8C3A7FFbdC144f462687120E4AE4C4e5E55abE",
        "1000000000000"
      ],
      "transaction": {
        "from": "0x4b7e14dac8b2713e6481c0e4beddda137c2e8a83",
        "to": "0xf76311bb777bc00fde091b71919ed14738c2ca46",
        "gas": "0x17b30",
        "value": "0x0",
        "input": "0x40c10f19000000000000000000000000df8c3a7ffbdc144f462687120e4ae4c4e5e55abe000000000000000000000000000000000000000000000000000000e8d4a51000",
        "nonce": "0x1b",
        "chainId": "0x14a34"
      },
      "additionalContracts": [],
      "isFixedGasLimit": false
    }
  ],
  "receipts": [
    {
      "status": "0x1",
      "cumulativeGasUsed": "0x11287",
      "logs": [
        {
          "address": "0xf76311bb777bc00fde091b71919ed14738c2ca46",
          "topics": [
            "0xddf252ad1be2c89b69c2b068fc378daa952ba7f163c4a11628f55a4df523b3ef",
            "0x0000000000000000000000000000000000000000000000000000000000000000",
            "0x000000000000000000000000df8c3a7ffbdc144f462687120e4ae4c4e5e55abe"
          ],
          "data": "0x000000000000000000000000000000000000000000000000000000e8d4a51000",
          "blockHash": "0xa45077e5321f60d9cd1ff9dd478ecc6b33f128fb3547cffdd178f45e3c01f8bf",
          "blockNumber": "0x24ce904",
          "blockTimestamp": "0x69ad3101",
          "transactionHash": "0x204102fc1914f62e9a527d6146a354cd8e6b388b2d699fc7996f5ca6a3dc79a2",
          "transactionIndex": "0x0",
          "logIndex": "0x0",
          "removed": false
        }
      ],
      "logsBloom": "0x00000000000000000000000000000000000000000000000000000000000000000000000000000000000000000000000000000000000000000000000000000000000000000000000000000008000000000000000000000000000000000000000000000000020000000000000000000800000000000000000000000010000000000000000000000000000000000000000000000000000000000000000000000000000000000000000000000000000000000000000000000000000000400000000000000002200000000000000010002000000000000000000000000000000020000000000000000000000000000000000000080000000000080000000000000000",
      "type": "0x2",
      "transactionHash": "0x204102fc1914f62e9a527d6146a354cd8e6b388b2d699fc7996f5ca6a3dc79a2",
      "transactionIndex": "0x0",
      "blockHash": "0xa45077e5321f60d9cd1ff9dd478ecc6b33f128fb3547cffdd178f45e3c01f8bf",
      "blockNumber": "0x24ce904",
      "gasUsed": "0x11287",
      "effectiveGasPrice": "0x42eed1",
      "blobGasPrice": "0x1",
      "from": "0x4b7e14dac8b2713e6481c0e4beddda137c2e8a83",
      "to": "0xf76311bb777bc00fde091b71919ed14738c2ca46",
      "contractAddress": null
    }
  ],
  "libraries": [],
  "pending": [],
  "returns": {},
  "timestamp": 1772957954194,
  "chain": 84532,
  "commit": "ead55f2"
}