{
  "transactions": [
    {
      "hash": "0x20447727773d4146c44c88d8bbf7114e80e744a35366a558171210db6ff6c71a",
      "transactionType": "CALL",
      "contractName": null,
      "contractAddress": "0xbed7b33b74b6003a009adee7691bcc4394e64511",
      "function": "mint(address,uint256)",
      "arguments": [
        "0xdF8C3A7FFbdC144f462687120E4AE4C4e5E55abE",
        "1000000000000"
      ],
      "transaction": {
        "from": "0x4b7e14dac8b2713e6481c0e4beddda137c2e8a83",
        "to": "0xbed7b33b74b6003a009adee7691bcc4394e64511",
        "gas": "0x12fcd",
        "value": "0x0",
        "input": "0x40c10f19000000000000000000000000df8c3a7ffbdc144f462687120e4ae4c4e5e55abe000000000000000000000000000000000000000000000000000000e8d4a51000",
        "nonce": "0x20",
        "chainId": "0x14a34"
      },
      "additionalContracts": [],
      "isFixedGasLimit": false
    }
  ],
  "receipts": [
    {
      "status": "0x1",
      "cumulativeGasUsed": "0xcfbb",
      "logs": [
        {
          "address": "0xbed7b33b74b6003a009adee7691bcc4394e64511",
          "topics": [
            "0xddf252ad1be2c89b69c2b068fc378daa952ba7f163c4a11628f55a4df523b3ef",
            "0x0000000000000000000000000000000000000000000000000000000000000000",
            "0x000000000000000000000000df8c3a7ffbdc144f462687120e4ae4c4e5e55abe"
          ],
          "data": "0x000000000000000000000000000000000000000000000000000000e8d4a51000",
          "blockHash": "0x76daced78df0df57edf318483be66044dfb72bdf799f016ca3d61e9de5466770",
          "blockNumber": "0x24ce858",
          "blockTimestamp": "0x69ad30d3",
          "transactionHash": "0x20447727773d4146c44c88d8bbf7114e80e744a35366a558171210db6ff6c71a",
          "transactionIndex": "0x0",
          "logIndex": "0x0",
          "removed": false
        }
      ],
      "logsBloom": "0x00000000000000000000000000000000000000000000000000000000000000000000000000000000000000000000000000000000000000000000000000000000000000000000000000000008000000000000000010000000000000000000000000000000020000000000000000000800000000000000000000000010000020000000000000000000000000000000000000000000000000000000000000000000000000000000000000000000000000000000000000000000000000000000000000000002000000000000000010002000000000100000000000000000000020000000000000000000000000000000000000000000000000080000000000000000",
      "type": "0x2",
      "transactionHash": "0x20447727773d4146c44c88d8bbf7114e80e744a35366a558171210db6ff6c71a",
      "transactionIndex": "0x0",
      "blockHash": "0x76daced78df0df57edf318483be66044dfb72bdf799f016ca3d61e9de5466770",
      "blockNumber": "0x24ce858",
      "gasUsed": "0xcfbb",
      "effectiveGasPrice": "0x2d8ee2",
      "blobGasPrice": "0x1",
      "from": "0x4b7e14dac8b2713e6481c0e4beddda137c2e8a83",
      "to": "0xbed7b33b74b6003a009adee7691bcc4394e64511",
      "contractAddress": null
    }
  ],
  "libraries": [],
  "pending": [],
  "returns": {},
  "timestamp": 1772957907481,
  "chain": 84532,
  "commit": "ead55f2"
}