{
  "transactions": [
    {
      "hash": "0x8564910e14b58f25ff068ed98e1c7cbbe8714cd5a9bb2c1945d1bb48969953cc",
      "transactionType": "CALL",
      "contractName": null,
      "contractAddress": "0xbed7b33b74b6003a009adee7691bcc4394e64511",
      "function": "mint(address,uint256)",
      "arguments": [
        "0x4b7e14dAC8B2713E6481c0e4bEDdDA137C2E8A83",
        "1000000000000"
      ],
      "transaction": {
        "from": "0x4b7e14dac8b2713e6481c0e4beddda137c2e8a83",
        "to": "0xbed7b33b74b6003a009adee7691bcc4394e64511",
        "gas": "0x17b30",
        "value": "0x0",
        "input": "0x40c10f190000000000000000000000004b7e14dac8b2713e6481c0e4beddda137c2e8a83000000000000000000000000000000000000000000000000000000e8d4a51000",
        "nonce": "0x1e",
        "chainId": "0x14a34"
      },
      "additionalContracts": [],
      "isFixedGasLimit": false
    }
  ],
  "receipts": [
    {
      "status": "0x1",
      "cumulativeGasUsed": "0x11287",
      "logs": [
        {
          "address": "0xbed7b33b74b6003a009adee7691bcc4394e64511",
          "topics": [
            "0xddf252ad1be2c89b69c2b068fc378daa952ba7f163c4a11628f55a4df523b3ef",
            "0x0000000000000000000000000000000000000000000000000000000000000000",
            "0x0000000000000000000000004b7e14dac8b2713e6481c0e4beddda137c2e8a83"
          ],
          "data": "0x000000000000000000000000000000000000000000000000000000e8d4a51000",
          "blockHash": "0xae8f4e800ba98c7cfac6081128da68b478bc7a3a2a2d9cea43702ccce2457e3a",
          "blockNumber": "0x24ce856",
          "blockTimestamp": "0x69ad2fe0",
          "transactionHash": "0x8564910e14b58f25ff068ed98e1c7cbbe8714cd5a9bb2c1945d1bb48969953cc",
          "transactionIndex": "0x0",
          "logIndex": "0x0",
          "removed": false
        }
      ],
      "logsBloom": "0x00000000000000000000000000000000000000000000000000000000000000000000000000000000000000000800000000000000000000000000000000000000000000000000000000000008000000000000000010000000000000000000000000000000020000000000000000000800000000000000000000400010000020000000000000000000000000000200000000000000000000000000000000000000000000000000000000000000000000000000000000000000000000000000000000000002000000000000000000000000000000100000000000000000000020000000000000000000000000000000000000000000000000000000000000000000",
      "type": "0x2",
      "transactionHash": "0x8564910e14b58f25ff068ed98e1c7cbbe8714cd5a9bb2c1945d1bb48969953cc",
      "transactionIndex": "0x0",
      "blockHash": "0xae8f4e800ba98c7cfac6081128da68b478bc7a3a2a2d9cea43702ccce2457e3a",
      "blockNumber": "0x24ce856",
      "gasUsed": "0x11287",
      "effectiveGasPrice": "0x36d489",
      "blobGasPrice": "0x1",
      "from": "0x4b7e14dac8b2713e6481c0e4beddda137c2e8a83",
      "to": "0xbed7b33b74b6003a009adee7691bcc4394e64511",
      "contractAddress": null
    }
  ],
  "libraries": [],
  "pending": [],
  "returns": {},
  "timestamp": 1772957664284,
  "chain": 84532,
  "commit": "ead55f2"
}