{
  "transactions": [
    {
      "hash": "0xe1d5e4dd13775281449592f9bbf5f1a0a0ed030b92045219b326c7785fe7143d",
      "transactionType": "CALL",
      "contractName": null,
      "contractAddress": "0xbed7b33b74b6003a009adee7691bcc4394e64511",
      "function": "mint(address,uint256)",
      "arguments": [
        "0x4b7e14dAC8B2713E6481c0e4bEDdDA137C2E8A83",
        "1000000000000"
      ],
      "transaction": {
        "from": "0x4b7e14dac8b2713e6481c0e4beddda137c2e8a83",
        "to": "0xbed7b33b74b6003a009adee7691bcc4394e64511",
        "gas": "0xc2a8",
        "value": "0x0",
        "input": "0x40c10f190000000000000000000000004b7e14dac8b2713e6481c0e4beddda137c2e8a83000000000000000000000000000000000000000000000000000000e8d4a51000",
        "nonce": "0x1a",
        "chainId": "0x14a34"
      },
      "additionalContracts": [],
      "isFixedGasLimit": false
    }
  ],
  "receipts": [
    {
      "status": "0x1",
      "cumulativeGasUsed": "0x8cef",
      "logs": [
        {
          "address": "0xbed7b33b74b6003a009adee7691bcc4394e64511",
          "topics": [
            "0xddf252ad1be2c89b69c2b068fc378daa952ba7f163c4a11628f55a4df523b3ef",
            "0x0000000000000000000000000000000000000000000000000000000000000000",
            "0x0000000000000000000000004b7e14dac8b2713e6481c0e4beddda137c2e8a83"
          ],
          "data": "0x000000000000000000000000000000000000000000000000000000e8d4a51000",
          "blockHash": "0x9a4ecd640dd015f5382ceb4767b0c8ec058c0cce37fd5610fad6fab0bc29f4f5",
          "blockNumber": "0x24a36c8",
          "blockTimestamp": "0x69a7cdac",
          "transactionHash": "0xe1d5e4dd13775281449592f9bbf5f1a0a0ed030b92045219b326c7785fe7143d",
          "transactionIndex": "0x0",
          "logIndex": "0x0",
          "removed": false
        }
      ],
      "logsBloom": "0x00000000000000000000000000000000000000000000000000000000000000000000000000000000000000000800000000000000000000000000000000000000000000000000000000000008000000000000000010000000000000000000000000000000020000000000000000000800000000000000000000400010000020000000000000000000000000000200000000000000000000000000000000000000000000000000000000000000000000000000000000000000000000000000000000000002000000000000000000000000000000100000000000000000000020000000000000000000000000000000000000000000000000000000000000000000",
      "type": "0x2",
      "transactionHash": "0xe1d5e4dd13775281449592f9bbf5f1a0a0ed030b92045219b326c7785fe7143d",
      "transactionIndex": "0x0",
      "blockHash": "0x9a4ecd640dd015f5382ceb4767b0c8ec058c0cce37fd5610fad6fab0bc29f4f5",
      "blockNumber": "0x24a36c8",
      "gasUsed": "0x8cef",
      "effectiveGasPrice": "0x3c73cd",
      "blobGasPrice": "0x1",
      "from": "0x4b7e14dac8b2713e6481c0e4beddda137c2e8a83",
      "to": "0xbed7b33b74b6003a009adee7691bcc4394e64511",
      "contractAddress": null
    }
  ],
  "libraries": [],
  "pending": [],
  "returns": {},
  "timestamp": 1772604845126,
  "chain": 84532,
  "commit": "8b55482"
}