{
  "transactions": [
    {
      "hash": "0xbb4a81eba1f55810f2cfbc684beec70704b9c7b60bb72004115ef684fadec5d4",
      "transactionType": "CALL",
      "contractName": null,
      "contractAddress": "0xf76311bb777bc00fde091b71919ed14738c2ca46",
      "function": "mint(address,uint256)",
      "arguments": [
        "0x4b7e14dAC8B2713E6481c0e4bEDdDA137C2E8A83",
        "11000000000"
      ],
      "transaction": {
        "from": "0x4b7e14dac8b2713e6481c0e4beddda137c2e8a83",
        "to": "0xf76311bb777bc00fde091b71919ed14738c2ca46",
        "gas": "0xc2a8",
        "value": "0x0",
        "input": "0x40c10f190000000000000000000000004b7e14dac8b2713e6481c0e4beddda137c2e8a83000000000000000000000000000000000000000000000000000000028fa6ae00",
        "nonce": "0x25",
        "chainId": "0x14a34"
      },
      "additionalContracts": [],
      "isFixedGasLimit": false
    },
    {
      "hash": "0x0d62c28078794a43869a1ea01a9ff2050fc743cce4c690169c0c07022618081c",
      "transactionType": "CALL",
      "contractName": null,
      "contractAddress": "0xf76311bb777bc00fde091b71919ed14738c2ca46",
      "function": "approve(address,uint256)",
      "arguments": [
        "0x5Bd4bae80F7B4fde93170Ed462228f47880d189f",
        "11000000000"
      ],
      "transaction": {
        "from": "0x4b7e14dac8b2713e6481c0e4beddda137c2e8a83",
        "to": "0xf76311bb777bc00fde091b71919ed14738c2ca46",
        "gas": "0x10635",
        "value": "0x0",
        "input": "0x095ea7b30000000000000000000000005bd4bae80f7b4fde93170ed462228f47880d189f000000000000000000000000000000000000000000000000000000028fa6ae00",
        "nonce": "0x26",
        "chainId": "0x14a34"
      },
      "additionalContracts": [],
      "isFixedGasLimit": false
    },
    {
      "hash": "0x67e88e66617922ccf96febf2016013dac4aa9185590e996a7a4ce2485580244b",
      "transactionType": "CALL",
      "contractName": null,
      "contractAddress": "0x5bd4bae80f7b4fde93170ed462228f47880d189f",
      "function": "createMarketFactory(string,string)",
      "arguments": [
        "iran",
        "IRAN"
      ],
      "transaction": {
        "from": "0x4b7e14dac8b2713e6481c0e4beddda137c2e8a83",
        "to": "0x5bd4bae80f7b4fde93170ed462228f47880d189f",
        "gas": "0xc3aff",
        "value": "0x0",
        "input": "0xc3aba5a70000000000000000000000000000000000000000000000000000000000000040000000000000000000000000000000000000000000000000000000000000008000000000000000000000000000000000000000000000000000000000000000046972616e0000000000000000000000000000000000000000000000000000000000000000000000000000000000000000000000000000000000000000000000044952414e00000000000000000000000000000000000000000000000000000000",
        "nonce": "0x27",
        "chainId": "0x14a34"
      },
      "additionalContracts": [
        {
          "transactionType": "CREATE",
          "contractName": null,
          "address": "0xdb0263f32975abfc36d260784fa3fcb90fbc53a2",
          "initCode": "0x61018d3d81600a3d39f3363d3d373d3d3d363d73c4b54bd76b57a10a664c079a196912d4b9df105b5af43d82803e903d91602b57fd5bf3000000000000000000000000f76311bb777bc00fde091b71919ed14738c2ca46000000000000000000000000000000000000000000000000000000000000000800000000000000000000000000000000000000000000000000000000000000e0000000000000000000000000000000000000000000000000000000000000012000000000000000000000000008309f774a5bc40a83177b64eea9a9d29e7aeac5000000000000000000000000bd2362e96979e2310c8e1cfc551cdc83706f49aa000000000000000000000000efac0e8b7f7a0cf361c1e5ca4466374c8a8de5e100000000000000000000000000000000000000000000000000000000000000046972616e0000000000000000000000000000000000000000000000000000000000000000000000000000000000000000000000000000000000000000000000044952414e00000000000000000000000000000000000000000000000000000000"
        },
        {
          "transactionType": "CREATE",
          "contractName": null,
          "address": "0x6d2e51c009f9e913df6df6b278af593316782a05",
          "initCode": "0x6100ad3d81600a3d39f3363d3d373d3d3d363d73bd2362e96979e2310c8e1cfc551cdc83706f49aa5af43d82803e903d91602b57fd5bf30000000000000000000000000000000000000000000000000000000000000008000000000000000000000000000000000000000000000000000000000000004000000000000000000000000000000000000000000000000000000000000000046972616e00000000000000000000000000000000000000000000000000000000"
        }
      ],
      "isFixedGasLimit": false
    }
  ],
  "receipts": [
    {
      "status": "0x1",
      "cumulativeGasUsed": "0x8cef",
      "logs": [
        {
          "address": "0xf76311bb777bc00fde091b71919ed14738c2ca46",
          "topics": [
            "0xddf252ad1be2c89b69c2b068fc378daa952ba7f163c4a11628f55a4df523b3ef",
            "0x0000000000000000000000000000000000000000000000000000000000000000",
            "0x0000000000000000000000004b7e14dac8b2713e6481c0e4beddda137c2e8a83"
          ],
          "data": "0x000000000000000000000000000000000000000000000000000000028fa6ae00",
          "blockHash": "0x6542af3ad772c8f184658f8cae208b877629ea5effee11159d35aa42b5895993",
          "blockNumber": "0x24ce90d",
          "blockTimestamp": "0x69ad3540",
          "transactionHash": "0xbb4a81eba1f55810f2cfbc684beec70704b9c7b60bb72004115ef684fadec5d4",
          "transactionIndex": "0x0",
          "logIndex": "0x0",
          "removed": false
        }
      ],
      "logsBloom": "0x00000000000000000000000000000000000000000000000000000000000000000000000000000000000000000800000000000000000000000000000000000000000000000000000000000008000000000000000000000000000000000000000000000000020000000000000000000800000000000000000000400010000000000000000000000000000000000200000000000000000000000000000000000000000000000000000000000000000000000000000000000000000000400000000000000002200000000000000000000000000000000000000000000000000020000000000000000000000000000000000000080000000000000000000000000000",
      "type": "0x2",
      "transactionHash": "0xbb4a81eba1f55810f2cfbc684beec70704b9c7b60bb72004115ef684fadec5d4",
      "transactionIndex": "0x0",
      "blockHash": "0x6542af3ad772c8f184658f8cae208b877629ea5effee11159d35aa42b5895993",
      "blockNumber": "0x24ce90d",
      "gasUsed": "0x8cef",
      "effectiveGasPrice": "0x1ed48b",
      "blobGasPrice": "0x1",
      "from": "0x4b7e14dac8b2713e6481c0e4beddda137c2e8a83",
      "to": "0xf76311bb777bc00fde091b71919ed14738c2ca46",
      "contractAddress": null
    },
    {
      "status": "0x1",
      "cumulativeGasUsed": "0xb34a",
      "logs": [
        {
          "address": "0xf76311bb777bc00fde091b71919ed14738c2ca46",
          "topics": [
            "0x8c5be1e5ebec7d5bd14f71427d1e84f3dd0314c0f7b2291e5b200ac8c7c3b925",
            "0x0000000000000000000000004b7e14dac8b2713e6481c0e4beddda137c2e8a83",
            "0x0000000000000000000000005bd4bae80f7b4fde93170ed462228f47880d189f"
          ],
          "data": "0x000000000000000000000000000000000000000000000000000000028fa6ae00",
          "blockHash": "0x8fdf0d693db6b29d46aa674202646b22605f5cccf41644d801509b665b0bb403",
          "blockNumber": "0x24ce90e",
          "blockTimestamp": "0x69ad3540",
          "transactionHash": "0x67e88e66617922ccf96febf2016013dac4aa9185590e996a7a4ce2485580244b",
          "transactionIndex": "0x0",
          "logIndex": "0x0",
          "removed": false
        }
      ],
      "logsBloom": "0x00000000000000000000000000000000000000000000000000000000000000000000000040000000000000000800000000000000000000000000000000200000000000000000000000000000000000000000000000000000000000000000000000000000000000000000000000001000000000000000000000400000000000000000000000000000000000000200000000000000000000000000000000000000020000000000000000000000000000000000000000000000000000400000000000000000200000000000000000000000000000000000000000000000000000000010000000000000000000000000000000080000000004000000000000000000",
      "type": "0x2",
      "transactionHash": "0x67e88e66617922ccf96febf2016013dac4aa9185590e996a7a4ce2485580244b",
      "transactionIndex": "0x0",
      "blockHash": "0x8fdf0d693db6b29d46aa674202646b22605f5cccf41644d801509b665b0bb403",
      "blockNumber": "0x24ce90e",
      "gasUsed": "0xb34a",
      "effectiveGasPrice": "0x1ce25b",
      "blobGasPrice": "0x1",
      "from": "0x4b7e14dac8b2713e6481c0e4beddda137c2e8a83",
      "to": "0xf76311bb777bc00fde091b71919ed14738c2ca46",
      "contractAddress": null
    },
    {
      "status": "0x1",
      "cumulativeGasUsed": "0x91025",
      "logs": [
        {
          "address": "0xf76311bb777bc00fde091b71919ed14738c2ca46",
          "topics": [
            "0xddf252ad1be2c89b69c2b068fc378daa952ba7f163c4a11628f55a4df523b3ef",
            "0x0000000000000000000000004b7e14dac8b2713e6481c0e4beddda137c2e8a83",
            "0x000000000000000000000000db0263f32975abfc36d260784fa3fcb90fbc53a2"
          ],
          "data": "0x00000000000000000000000000000000000000000000000000000002540be400",
          "blockHash": "0x8fdf0d693db6b29d46aa674202646b22605f5cccf41644d801509b665b0bb403",
          "blockNumber": "0x24ce90e",
          "blockTimestamp": "0x69ad3540",
          "transactionHash": "0x0d62c28078794a43869a1ea01a9ff2050fc743cce4c690169c0c07022618081c",
          "transactionIndex": "0x1",
          "logIndex": "0x1",
          "removed": false
        },
        {
          "address": "0xf76311bb777bc00fde091b71919ed14738c2ca46",
          "topics": [
            "0xddf252ad1be2c89b69c2b068fc378daa952ba7f163c4a11628f55a4df523b3ef",
            "0x0000000000000000000000004b7e14dac8b2713e6481c0e4beddda137c2e8a83",
            "0x0000000000000000000000004b7e14dac8b2713e6481c0e4beddda137c2e8a83"
          ],
          "data": "0x000000000000000000000000000000000000000000000000000000003b9aca00",
          "blockHash": "0x8fdf0d693db6b29d46aa674202646b22605f5cccf41644d801509b665b0bb403",
          "blockNumber": "0x24ce90e",
          "blockTimestamp": "0x69ad3540",
          "transactionHash": "0x0d62c28078794a43869a1ea01a9ff2050fc743cce4c690169c0c07022618081c",
          "transactionIndex": "0x1",
          "logIndex": "0x2",
          "removed": false
        },
        {
          "address": "0xdb0263f32975abfc36d260784fa3fcb90fbc53a2",
          "topics": [
            "0x039ad854736757070884dd787ef1a7f58db33546639d1f3efddcf4a33fb8997e",
            "0x0000000000000000000000000000000000000000000000000000000000000000",
            "0x00000000000000000000000082300bd7c3958625581cc2f77bc6464dcecdf3e5"
          ],
          "data": "0x",
          "blockHash": "0x8fdf0d693db6b29d46aa674202646b22605f5cccf41644d801509b665b0bb403",
          "blockNumber": "0x24ce90e",
          "blockTimestamp": "0x69ad3540",
          "transactionHash": "0x0d62c28078794a43869a1ea01a9ff2050fc743cce4c690169c0c07022618081c",
          "transactionIndex": "0x1",
          "logIndex": "0x3",
          "removed": false
        },
        {
          "address": "0xdb0263f32975abfc36d260784fa3fcb90fbc53a2",
          "topics": [
            "0x8be0079c531659141344cd1fd0a4f28419497f9722a3daafe3b4186f6b6457e0",
            "0x0000000000000000000000000000000000000000000000000000000000000000",
            "0x0000000000000000000000005bd4bae80f7b4fde93170ed462228f47880d189f"
          ],
          "data": "0x",
          "blockHash": "0x8fdf0d693db6b29d46aa674202646b22605f5cccf41644d801509b665b0bb403",
          "blockNumber": "0x24ce90e",
          "blockTimestamp": "0x69ad3540",
          "transactionHash": "0x0d62c28078794a43869a1ea01a9ff2050fc743cce4c690169c0c07022618081c",
          "transactionIndex": "0x1",
          "logIndex": "0x4",
          "removed": false
        },
        {
          "address": "0x6d2e51c009f9e913df6df6b278af593316782a05",
          "topics": [
            "0x039ad854736757070884dd787ef1a7f58db33546639d1f3efddcf4a33fb8997e",
            "0x0000000000000000000000000000000000000000000000000000000000000000",
            "0x00000000000000000000000082300bd7c3958625581cc2f77bc6464dcecdf3e5"
          ],
          "data": "0x",
          "blockHash": "0x8fdf0d693db6b29d46aa674202646b22605f5cccf41644d801509b665b0bb403",
          "blockNumber": "0x24ce90e",
          "blockTimestamp": "0x69ad3540",
          "transactionHash": "0x0d62c28078794a43869a1ea01a9ff2050fc743cce4c690169c0c07022618081c",
          "transactionIndex": "0x1",
          "logIndex": "0x5",
          "removed": false
        },
        {
          "address": "0x6d2e51c009f9e913df6df6b278af593316782a05",
          "topics": [
            "0x8be0079c531659141344cd1fd0a4f28419497f9722a3daafe3b4186f6b6457e0",
            "0x0000000000000000000000000000000000000000000000000000000000000000",
            "0x000000000000000000000000db0263f32975abfc36d260784fa3fcb90fbc53a2"
          ],
          "data": "0x",
          "blockHash": "0x8fdf0d693db6b29d46aa674202646b22605f5cccf41644d801509b665b0bb403",
          "blockNumber": "0x24ce90e",
          "blockTimestamp": "0x69ad3540",
          "transactionHash": "0x0d62c28078794a43869a1ea01a9ff2050fc743cce4c690169c0c07022618081c",
          "transactionIndex": "0x1",
          "logIndex": "0x6",
          "removed": false
        },
        {
          "address": "0xf76311bb777bc00fde091b71919ed14738c2ca46",
          "topics": [
            "0x8c5be1e5ebec7d5bd14f71427d1e84f3dd0314c0f7b2291e5b200ac8c7c3b925",
            "0x000000000000000000000000db0263f32975abfc36d260784fa3fcb90fbc53a2",
            "0x000000000000000000000000db0263f32975abfc36d260784fa3fcb90fbc53a2"
          ],
          "data": "0x00000000000000000000000000000000000000000000000000000002540be400",
          "blockHash": "0x8fdf0d693db6b29d46aa674202646b22605f5cccf41644d801509b665b0bb403",
          "blockNumber": "0x24ce90e",
          "blockTimestamp": "0x69ad3540",
          "transactionHash": "0x0d62c28078794a43869a1ea01a9ff2050fc743cce4c690169c0c07022618081c",
          "transactionIndex": "0x1",
          "logIndex": "0x7",
          "removed": false
        },
        {
          "address": "0x5bd4bae80f7b4fde93170ed462228f47880d189f",
          "topics": [
            "0x8d01162be79b9dd1c1998ba06251c39e082a5d03b2bf6def0c975e79ddd873d8",
            "0x000000000000000000000000db0263f32975abfc36d260784fa3fcb90fbc53a2"
          ],
          "data": "0x0000000000000000000000000000000000000000000000000000000000000040000000000000000000000000000000000000000000000000000000000000008000000000000000000000000000000000000000000000000000000000000000046972616e0000000000000000000000000000000000000000000000000000000000000000000000000000000000000000000000000000000000000000000000044952414e00000000000000000000000000000000000000000000000000000000",
          "blockHash": "0x8fdf0d693db6b29d46aa674202646b22605f5cccf41644d801509b665b0bb403",
          "blockNumber": "0x24ce90e",
          "blockTimestamp": "0x69ad3540",
          "transactionHash": "0x0d62c28078794a43869a1ea01a9ff2050fc743cce4c690169c0c07022618081c",
          "transactionIndex": "0x1",
          "logIndex": "0x8",
          "removed": false
        }
      ],
      "logsBloom": "0x00000000000020000000000000000000000000000000000002800000002000000000200040400000000000000800020000000000000000000000000000200000000000000000000000010008000000000401000040000008000000000000000000000000020000000000000000001800000000000000000000400010000000400000000000000000000000000200000000000000000080000000000000000000020000000008800000000000000000000000000000000000000000400002000000000002200000000000000000000000010000000000010008000000000020000010000000000000000000000800000000088000000004000000000080080000",
      "type": "0x2",
      "transactionHash": "0x0d62c28078794a43869a1ea01a9ff2050fc743cce4c690169c0c07022618081c",
      "transactionIndex": "0x1",
      "blockHash": "0x8fdf0d693db6b29d46aa674202646b22605f5cccf41644d801509b665b0bb403",
      "blockNumber": "0x24ce90e",
      "gasUsed": "0x85cdb",
      "effectiveGasPrice": "0x1ce25b",
      "blobGasPrice": "0x1",
      "from": "0x4b7e14dac8b2713e6481c0e4beddda137c2e8a83",
      "to": "0x5bd4bae80f7b4fde93170ed462228f47880d189f",
      "contractAddress": null
    }
  ],
  "libraries": [],
  "pending": [],
  "returns": {},
  "timestamp": 1772959041165,
  "chain": 84532,
  "commit": "ead55f2"
}