{
  "transactions": [
    {
      "hash": "0x106a3a5b480a52daeb0ad0e2529198c5a8fed3dc683610f605901913cb1e853e",
      "transactionType": "CALL",
      "contractName": null,
      "contractAddress": "0xf76311bb777bc00fde091b71919ed14738c2ca46",
      "function": "mint(address,uint256)",
      "arguments": [
        "0x4b7e14dAC8B2713E6481c0e4bEDdDA137C2E8A83",
        "11000000000"
      ],
      "transaction": {
        "from": "0x4b7e14dac8b2713e6481c0e4beddda137c2e8a83",
        "to": "0xf76311bb777bc00fde091b71919ed14738c2ca46",
        "gas": "0x17b30",
        "value": "0x0",
        "input": "0x40c10f190000000000000000000000004b7e14dac8b2713e6481c0e4beddda137c2e8a83000000000000000000000000000000000000000000000000000000028fa6ae00",
        "nonce": "0x1b",
        "chainId": "0x14a34"
      },
      "additionalContracts": [],
      "isFixedGasLimit": false
    },
    {
      "hash": "0xefa025355608efdb5684ef926f1290f0e0c49593924e1137dbd271d468deda0c",
      "transactionType": "CALL",
      "contractName": null,
      "contractAddress": "0xf76311bb777bc00fde091b71919ed14738c2ca46",
      "function": "approve(address,uint256)",
      "arguments": [
        "0x5Bd4bae80F7B4fde93170Ed462228f47880d189f",
        "11000000000"
      ],
      "transaction": {
        "from": "0x4b7e14dac8b2713e6481c0e4beddda137c2e8a83",
        "to": "0xf76311bb777bc00fde091b71919ed14738c2ca46",
        "gas": "0x10635",
        "value": "0x0",
        "input": "0x095ea7b30000000000000000000000005bd4bae80f7b4fde93170ed462228f47880d189f000000000000000000000000000000000000000000000000000000028fa6ae00",
        "nonce": "0x1c",
        "chainId": "0x14a34"
      },
      "additionalContracts": [],
      "isFixedGasLimit": false
    },
    {
      "hash": "0x50d58b6650baf90e6950b352521e2f96e38affdb5d5461074baf0c19ac0dde0f",
      "transactionType": "CALL",
      "contractName": null,
      "contractAddress": "0x5bd4bae80f7b4fde93170ed462228f47880d189f",
      "function": "createMarketFactory(string,string)",
      "arguments": [
        "donald trump",
        "TRUMP"
      ],
      "transaction": {
        "from": "0x4b7e14dac8b2713e6481c0e4beddda137c2e8a83",
        "to": "0x5bd4bae80f7b4fde93170ed462228f47880d189f",
        "gas": "0xca23e",
        "value": "0x0",
        "input": "0xc3aba5a700000000000000000000000000000000000000000000000000000000000000400000000000000000000000000000000000000000000000000000000000000080000000000000000000000000000000000000000000000000000000000000000c646f6e616c64207472756d70000000000000000000000000000000000000000000000000000000000000000000000000000000000000000000000000000000055452554d50000000000000000000000000000000000000000000000000000000",
        "nonce": "0x1d",
        "chainId": "0x14a34"
      },
      "additionalContracts": [
        {
          "transactionType": "CREATE",
          "contractName": null,
          "address": "0xb5b5a5ca6502fa9c963a30a3278767a2582d7fce",
          "initCode": "0x61018d3d81600a3d39f3363d3d373d3d3d363d73c4b54bd76b57a10a664c079a196912d4b9df105b5af43d82803e903d91602b57fd5bf3000000000000000000000000f76311bb777bc00fde091b71919ed14738c2ca46000000000000000000000000000000000000000000000000000000000000000800000000000000000000000000000000000000000000000000000000000000e0000000000000000000000000000000000000000000000000000000000000012000000000000000000000000008309f774a5bc40a83177b64eea9a9d29e7aeac5000000000000000000000000bd2362e96979e2310c8e1cfc551cdc83706f49aa000000000000000000000000efac0e8b7f7a0cf361c1e5ca4466374c8a8de5e1000000000000000000000000000000000000000000000000000000000000000c646f6e616c64207472756d70000000000000000000000000000000000000000000000000000000000000000000000000000000000000000000000000000000055452554d50000000000000000000000000000000000000000000000000000000"
        },
        {
          "transactionType": "CREATE",
          "contractName": null,
          "address": "0xa4afcd05fc6ddcb32f5899b752c2f77ce4380a40",
          "initCode": "0x6100ad3d81600a3d39f3363d3d373d3d3d363d73bd2362e96979e2310c8e1cfc551cdc83706f49aa5af43d82803e903d91602b57fd5bf300000000000000000000000000000000000000000000000000000000000000080000000000000000000000000000000000000000000000000000000000000040000000000000000000000000000000000000000000000000000000000000000c646f6e616c64207472756d700000000000000000000000000000000000000000"
        }
      ],
      "isFixedGasLimit": false
    }
  ],
  "receipts": [
    {
      "status": "0x1",
      "cumulativeGasUsed": "0x11287",
      "logs": [
        {
          "address": "0xf76311bb777bc00fde091b71919ed14738c2ca46",
          "topics": [
            "0xddf252ad1be2c89b69c2b068fc378daa952ba7f163c4a11628f55a4df523b3ef",
            "0x0000000000000000000000000000000000000000000000000000000000000000",
            "0x0000000000000000000000004b7e14dac8b2713e6481c0e4beddda137c2e8a83"
          ],
          "data": "0x000000000000000000000000000000000000000000000000000000028fa6ae00",
          "blockHash": "0x95a1780baade196c9d673eb3f87238218b1c7f47ba3eb83dbdbbeb0080359f24",
          "blockNumber": "0x24ce854",
          "blockTimestamp": "0x69ad2fa0",
          "transactionHash": "0x106a3a5b480a52daeb0ad0e2529198c5a8fed3dc683610f605901913cb1e853e",
          "transactionIndex": "0x0",
          "logIndex": "0x0",
          "removed": false
        }
      ],
      "logsBloom": "0x00000000000000000000000000000000000000000000000000000000000000000000000000000000000000000800000000000000000000000000000000000000000000000000000000000008000000000000000000000000000000000000000000000000020000000000000000000800000000000000000000400010000000000000000000000000000000000200000000000000000000000000000000000000000000000000000000000000000000000000000000000000000000400000000000000002200000000000000000000000000000000000000000000000000020000000000000000000000000000000000000080000000000000000000000000000",
      "type": "0x2",
      "transactionHash": "0x106a3a5b480a52daeb0ad0e2529198c5a8fed3dc683610f605901913cb1e853e",
      "transactionIndex": "0x0",
      "blockHash": "0x95a1780baade196c9d673eb3f87238218b1c7f47ba3eb83dbdbbeb0080359f24",
      "blockNumber": "0x24ce854",
      "gasUsed": "0x11287",
      "effectiveGasPrice": "0x42eac3",
      "blobGasPrice": "0x1",
      "from": "0x4b7e14dac8b2713e6481c0e4beddda137c2e8a83",
      "to": "0xf76311bb777bc00fde091b71919ed14738c2ca46",
      "contractAddress": null
    },
    {
      "status": "0x1",
      "cumulativeGasUsed": "0xb34a",
      "logs": [
        {
          "address": "0xf76311bb777bc00fde091b71919ed14738c2ca46",
          "topics": [
            "0x8c5be1e5ebec7d5bd14f71427d1e84f3dd0314c0f7b2291e5b200ac8c7c3b925",
            "0x0000000000000000000000004b7e14dac8b2713e6481c0e4beddda137c2e8a83",
            "0x0000000000000000000000005bd4bae80f7b4fde93170ed462228f47880d189f"
          ],
          "data": "0x000000000000000000000000000000000000000000000000000000028fa6ae00",
          "blockHash": "0x07f5bdcd8c6d868139762a21c4381cac4368988268ef0093ae57dd397ebbb7e5",
          "blockNumber": "0x24ce855",
          "blockTimestamp": "0x69ad2fa0",
          "transactionHash": "0x50d58b6650baf90e6950b352521e2f96e38affdb5d5461074baf0c19ac0dde0f",
          "transactionIndex": "0x0",
          "logIndex": "0x0",
          "removed": false
        }
      ],
      "logsBloom": "0x00000000000000000000000000000000000000000000000000000000000000000000000040000000000000000800000000000000000000000000000000200000000000000000000000000000000000000000000000000000000000000000000000000000000000000000000000001000000000000000000000400000000000000000000000000000000000000200000000000000000000000000000000000000020000000000000000000000000000000000000000000000000000400000000000000000200000000000000000000000000000000000000000000000000000000010000000000000000000000000000000080000000004000000000000000000",
      "type": "0x2",
      "transactionHash": "0x50d58b6650baf90e6950b352521e2f96e38affdb5d5461074baf0c19ac0dde0f",
      "transactionIndex": "0x0",
      "blockHash": "0x07f5bdcd8c6d868139762a21c4381cac4368988268ef0093ae57dd397ebbb7e5",
      "blockNumber": "0x24ce855",
      "gasUsed": "0xb34a",
      "effectiveGasPrice": "0x3c7652",
      "blobGasPrice": "0x1",
      "from": "0x4b7e14dac8b2713e6481c0e4beddda137c2e8a83",
      "to": "0xf76311bb777bc00fde091b71919ed14738c2ca46",
      "contractAddress": null
    },
    {
      "status": "0x1",
      "cumulativeGasUsed": "0x956bd",
      "logs": [
        {
          "address": "0xf76311bb777bc00fde091b71919ed14738c2ca46",
          "topics": [
            "0xddf252ad1be2c89b69c2b068fc378daa952ba7f163c4a11628f55a4df523b3ef",
            "0x0000000000000000000000004b7e14dac8b2713e6481c0e4beddda137c2e8a83",
            "0x000000000000000000000000b5b5a5ca6502fa9c963a30a3278767a2582d7fce"
          ],
          "data": "0x00000000000000000000000000000000000000000000000000000002540be400",
          "blockHash": "0x07f5bdcd8c6d868139762a21c4381cac4368988268ef0093ae57dd397ebbb7e5",
          "blockNumber": "0x24ce855",
          "blockTimestamp": "0x69ad2fa0",
          "transactionHash": "0xefa025355608efdb5684ef926f1290f0e0c49593924e1137dbd271d468deda0c",
          "transactionIndex": "0x1",
          "logIndex": "0x1",
          "removed": false
        },
        {
          "address": "0xf76311bb777bc00fde091b71919ed14738c2ca46",
          "topics": [
            "0xddf252ad1be2c89b69c2b068fc378daa952ba7f163c4a11628f55a4df523b3ef",
            "0x0000000000000000000000004b7e14dac8b2713e6481c0e4beddda137c2e8a83",
            "0x0000000000000000000000004b7e14dac8b2713e6481c0e4beddda137c2e8a83"
          ],
          "data": "0x000000000000000000000000000000000000000000000000000000003b9aca00",
          "blockHash": "0x07f5bdcd8c6d868139762a21c4381cac4368988268ef0093ae57dd397ebbb7e5",
          "blockNumber": "0x24ce855",
          "blockTimestamp": "0x69ad2fa0",
          "transactionHash": "0xefa025355608efdb5684ef926f1290f0e0c49593924e1137dbd271d468deda0c",
          "transactionIndex": "0x1",
          "logIndex": "0x2",
          "removed": false
        },
        {
          "address": "0xb5b5a5ca6502fa9c963a30a3278767a2582d7fce",
          "topics": [
            "0x039ad854736757070884dd787ef1a7f58db33546639d1f3efddcf4a33fb8997e",
            "0x0000000000000000000000000000000000000000000000000000000000000000",
            "0x00000000000000000000000082300bd7c3958625581cc2f77bc6464dcecdf3e5"
          ],
          "data": "0x",
          "blockHash": "0x07f5bdcd8c6d868139762a21c4381cac4368988268ef0093ae57dd397ebbb7e5",
          "blockNumber": "0x24ce855",
          "blockTimestamp": "0x69ad2fa0",
          "transactionHash": "0xefa025355608efdb5684ef926f1290f0e0c49593924e1137dbd271d468deda0c",
          "transactionIndex": "0x1",
          "logIndex": "0x3",
          "removed": false
        },
        {
          "address": "0xb5b5a5ca6502fa9c963a30a3278767a2582d7fce",
          "topics": [
            "0x8be0079c531659141344cd1fd0a4f28419497f9722a3daafe3b4186f6b6457e0",
            "0x0000000000000000000000000000000000000000000000000000000000000000",
            "0x0000000000000000000000005bd4bae80f7b4fde93170ed462228f47880d189f"
          ],
          "data": "0x",
          "blockHash": "0x07f5bdcd8c6d868139762a21c4381cac4368988268ef0093ae57dd397ebbb7e5",
          "blockNumber": "0x24ce855",
          "blockTimestamp": "0x69ad2fa0",
          "transactionHash": "0xefa025355608efdb5684ef926f1290f0e0c49593924e1137dbd271d468deda0c",
          "transactionIndex": "0x1",
          "logIndex": "0x4",
          "removed": false
        },
        {
          "address": "0xa4afcd05fc6ddcb32f5899b752c2f77ce4380a40",
          "topics": [
            "0x039ad854736757070884dd787ef1a7f58db33546639d1f3efddcf4a33fb8997e",
            "0x0000000000000000000000000000000000000000000000000000000000000000",
            "0x00000000000000000000000082300bd7c3958625581cc2f77bc6464dcecdf3e5"
          ],
          "data": "0x",
          "blockHash": "0x07f5bdcd8c6d868139762a21c4381cac4368988268ef0093ae57dd397ebbb7e5",
          "blockNumber": "0x24ce855",
          "blockTimestamp": "0x69ad2fa0",
          "transactionHash": "0xefa025355608efdb5684ef926f1290f0e0c49593924e1137dbd271d468deda0c",
          "transactionIndex": "0x1",
          "logIndex": "0x5",
          "removed": false
        },
        {
          "address": "0xa4afcd05fc6ddcb32f5899b752c2f77ce4380a40",
          "topics": [
            "0x8be0079c531659141344cd1fd0a4f28419497f9722a3daafe3b4186f6b6457e0",
            "0x0000000000000000000000000000000000000000000000000000000000000000",
            "0x000000000000000000000000b5b5a5ca6502fa9c963a30a3278767a2582d7fce"
          ],
          "data": "0x",
          "blockHash": "0x07f5bdcd8c6d868139762a21c4381cac4368988268ef0093ae57dd397ebbb7e5",
          "blockNumber": "0x24ce855",
          "blockTimestamp": "0x69ad2fa0",
          "transactionHash": "0xefa025355608efdb5684ef926f1290f0e0c49593924e1137dbd271d468deda0c",
          "transactionIndex": "0x1",
          "logIndex": "0x6",
          "removed": false
        },
        {
          "address": "0xf76311bb777bc00fde091b71919ed14738c2ca46",
          "topics": [
            "0x8c5be1e5ebec7d5bd14f71427d1e84f3dd0314c0f7b2291e5b200ac8c7c3b925",
            "0x000000000000000000000000b5b5a5ca6502fa9c963a30a3278767a2582d7fce",
            "0x000000000000000000000000b5b5a5ca6502fa9c963a30a3278767a2582d7fce"
          ],
          "data": "0x00000000000000000000000000000000000000000000000000000002540be400",
          "blockHash": "0x07f5bdcd8c6d868139762a21c4381cac4368988268ef0093ae57dd397ebbb7e5",
          "blockNumber": "0x24ce855",
          "blockTimestamp": "0x69ad2fa0",
          "transactionHash": "0xefa025355608efdb5684ef926f1290f0e0c49593924e1137dbd271d468deda0c",
          "transactionIndex": "0x1",
          "logIndex": "0x7",
          "removed": false
        },
        {
          "address": "0x5bd4bae80f7b4fde93170ed462228f47880d189f",
          "topics": [
            "0x8d01162be79b9dd1c1998ba06251c39e082a5d03b2bf6def0c975e79ddd873d8",
            "0x000000000000000000000000b5b5a5ca6502fa9c963a30a3278767a2582d7fce"
          ],
          "data": "0x00000000000000000000000000000000000000000000000000000000000000400000000000000000000000000000000000000000000000000000000000000080000000000000000000000000000000000000000000000000000000000000000c646f6e616c64207472756d70000000000000000000000000000000000000000000000000000000000000000000000000000000000000000000000000000000055452554d50000000000000000000000000000000000000000000000000000000",
          "blockHash": "0x07f5bdcd8c6d868139762a21c4381cac4368988268ef0093ae57dd397ebbb7e5",
          "blockNumber": "0x24ce855",
          "blockTimestamp": "0x69ad2fa0",
          "transactionHash": "0xefa025355608efdb5684ef926f1290f0e0c49593924e1137dbd271d468deda0c",
          "transactionIndex": "0x1",
          "logIndex": "0x8",
          "removed": false
        }
      ],
      "logsBloom": "0x00000000000020000000000000000000000000800000000002804000002000000000200040000000000000000800000000000002000000000000000000200000000000000000000000010008000000000401000040000000000000000000000000000000020000000000000000001800000000000000000000400010000000400000000000000000000000000200000000000000000200000020000000000000020000000008000000000000000200000000000000000000000000400000000000000002200000000000000000000000000000000000010008001000000020000010000000000000100000000000000000088000004004000000000000080000",
      "type": "0x2",
      "transactionHash": "0xefa025355608efdb5684ef926f1290f0e0c49593924e1137dbd271d468deda0c",
      "transactionIndex": "0x1",
      "blockHash": "0x07f5bdcd8c6d868139762a21c4381cac4368988268ef0093ae57dd397ebbb7e5",
      "blockNumber": "0x24ce855",
      "gasUsed": "0x8a373",
      "effectiveGasPrice": "0x3c7652",
      "blobGasPrice": "0x1",
      "from": "0x4b7e14dac8b2713e6481c0e4beddda137c2e8a83",
      "to": "0x5bd4bae80f7b4fde93170ed462228f47880d189f",
      "contractAddress": null
    }
  ],
  "libraries": [],
  "pending": [],
  "returns": {},
  "timestamp": 1772957600449,
  "chain": 84532,
  "commit": "ead55f2"
}