{
  "transactions": [
    {
      "hash": "0x109bb8d7d375707ffa7f41d01fa9d4bee72fbd6e25bf1600be4403d6b077b230",
      "transactionType": "CALL",
      "contractName": null,
      "contractAddress": "0xf76311bb777bc00fde091b71919ed14738c2ca46",
      "function": "mint(address,uint256)",
      "arguments": [
        "0x4b7e14dAC8B2713E6481c0e4bEDdDA137C2E8A83",
        "11000000000"
      ],
      "transaction": {
        "from": "0x4b7e14dac8b2713e6481c0e4beddda137c2e8a83",
        "to": "0xf76311bb777bc00fde091b71919ed14738c2ca46",
        "gas": "0xc2a8",
        "value": "0x0",
        "input": "0x40c10f190000000000000000000000004b7e14dac8b2713e6481c0e4beddda137c2e8a83000000000000000000000000000000000000000000000000000000028fa6ae00",
        "nonce": "0x22",
        "chainId": "0x14a34"
      },
      "additionalContracts": [],
      "isFixedGasLimit": false
    },
    {
      "hash": "0xc73ce8ac8539ef9c0f82609dd6445a9d87a22c1ab6f9aa6945d1806c808e5912",
      "transactionType": "CALL",
      "contractName": null,
      "contractAddress": "0xf76311bb777bc00fde091b71919ed14738c2ca46",
      "function": "approve(address,uint256)",
      "arguments": [
        "0x5Bd4bae80F7B4fde93170Ed462228f47880d189f",
        "11000000000"
      ],
      "transaction": {
        "from": "0x4b7e14dac8b2713e6481c0e4beddda137c2e8a83",
        "to": "0xf76311bb777bc00fde091b71919ed14738c2ca46",
        "gas": "0x10635",
        "value": "0x0",
        "input": "0x095ea7b30000000000000000000000005bd4bae80f7b4fde93170ed462228f47880d189f000000000000000000000000000000000000000000000000000000028fa6ae00",
        "nonce": "0x23",
        "chainId": "0x14a34"
      },
      "additionalContracts": [],
      "isFixedGasLimit": false
    },
    {
      "hash": "0x6248f35b5fc85cf6315a99056f30a36697a213e284e2991036b629957f9305f5",
      "transactionType": "CALL",
      "contractName": null,
      "contractAddress": "0x5bd4bae80f7b4fde93170ed462228f47880d189f",
      "function": "createMarketFactory(string,string)",
      "arguments": [
        "openai",
        "OAI"
      ],
      "transaction": {
        "from": "0x4b7e14dac8b2713e6481c0e4beddda137c2e8a83",
        "to": "0x5bd4bae80f7b4fde93170ed462228f47880d189f",
        "gas": "0xb8da3",
        "value": "0x0",
        "input": "0xc3aba5a70000000000000000000000000000000000000000000000000000000000000040000000000000000000000000000000000000000000000000000000000000008000000000000000000000000000000000000000000000000000000000000000066f70656e6169000000000000000000000000000000000000000000000000000000000000000000000000000000000000000000000000000000000000000000034f41490000000000000000000000000000000000000000000000000000000000",
        "nonce": "0x24",
        "chainId": "0x14a34"
      },
      "additionalContracts": [
        {
          "transactionType": "CREATE",
          "contractName": null,
          "address": "0x65abc0f04241c193f7e2e0fc6944866e5f88652b",
          "initCode": "0x61018d3d81600a3d39f3363d3d373d3d3d363d73c4b54bd76b57a10a664c079a196912d4b9df105b5af43d82803e903d91602b57fd5bf3000000000000000000000000f76311bb777bc00fde091b71919ed14738c2ca46000000000000000000000000000000000000000000000000000000000000000800000000000000000000000000000000000000000000000000000000000000e0000000000000000000000000000000000000000000000000000000000000012000000000000000000000000008309f774a5bc40a83177b64eea9a9d29e7aeac5000000000000000000000000bd2362e96979e2310c8e1cfc551cdc83706f49aa000000000000000000000000efac0e8b7f7a0cf361c1e5ca4466374c8a8de5e100000000000000000000000000000000000000000000000000000000000000066f70656e6169000000000000000000000000000000000000000000000000000000000000000000000000000000000000000000000000000000000000000000034f41490000000000000000000000000000000000000000000000000000000000"
        },
        {
          "transactionType": "CREATE",
          "contractName": null,
          "address": "0x69e9850cd398683c90d8c01d26d707cc55eeaa52",
          "initCode": "0x6100ad3d81600a3d39f3363d3d373d3d3d363d73bd2362e96979e2310c8e1cfc551cdc83706f49aa5af43d82803e903d91602b57fd5bf30000000000000000000000000000000000000000000000000000000000000008000000000000000000000000000000000000000000000000000000000000004000000000000000000000000000000000000000000000000000000000000000066f70656e61690000000000000000000000000000000000000000000000000000"
        }
      ],
      "isFixedGasLimit": false
    }
  ],
  "receipts": [
    {
      "status": "0x1",
      "cumulativeGasUsed": "0x8cef",
      "logs": [
        {
          "address": "0xf76311bb777bc00fde091b71919ed14738c2ca46",
          "topics": [
            "0xddf252ad1be2c89b69c2b068fc378daa952ba7f163c4a11628f55a4df523b3ef",
            "0x0000000000000000000000000000000000000000000000000000000000000000",
            "0x0000000000000000000000004b7e14dac8b2713e6481c0e4beddda137c2e8a83"
          ],
          "data": "0x000000000000000000000000000000000000000000000000000000028fa6ae00",
          "blockHash": "0xb9c950ba16398500ccda69e1ee851fb1f03bdc1ad413afe17815e238779b35ff",
          "blockNumber": "0x24ce90b",
          "blockTimestamp": "0x69ad3516",
          "transactionHash": "0x109bb8d7d375707ffa7f41d01fa9d4bee72fbd6e25bf1600be4403d6b077b230",
          "transactionIndex": "0x0",
          "logIndex": "0x0",
          "removed": false
        }
      ],
      "logsBloom": "0x00000000000000000000000000000000000000000000000000000000000000000000000000000000000000000800000000000000000000000000000000000000000000000000000000000008000000000000000000000000000000000000000000000000020000000000000000000800000000000000000000400010000000000000000000000000000000000200000000000000000000000000000000000000000000000000000000000000000000000000000000000000000000400000000000000002200000000000000000000000000000000000000000000000000020000000000000000000000000000000000000080000000000000000000000000000",
      "type": "0x2",
      "transactionHash": "0x109bb8d7d375707ffa7f41d01fa9d4bee72fbd6e25bf1600be4403d6b077b230",
      "transactionIndex": "0x0",
      "blockHash": "0xb9c950ba16398500ccda69e1ee851fb1f03bdc1ad413afe17815e238779b35ff",
      "blockNumber": "0x24ce90b",
      "gasUsed": "0x8cef",
      "effectiveGasPrice": "0x239655",
      "blobGasPrice": "0x1",
      "from": "0x4b7e14dac8b2713e6481c0e4beddda137c2e8a83",
      "to": "0xf76311bb777bc00fde091b71919ed14738c2ca46",
      "contractAddress": null
    },
    {
      "status": "0x1",
      "cumulativeGasUsed": "0xb34a",
      "logs": [
        {
          "address": "0xf76311bb777bc00fde091b71919ed14738c2ca46",
          "topics": [
            "0x8c5be1e5ebec7d5bd14f71427d1e84f3dd0314c0f7b2291e5b200ac8c7c3b925",
            "0x0000000000000000000000004b7e14dac8b2713e6481c0e4beddda137c2e8a83",
            "0x0000000000000000000000005bd4bae80f7b4fde93170ed462228f47880d189f"
          ],
          "data": "0x000000000000000000000000000000000000000000000000000000028fa6ae00",
          "blockHash": "0xfa31792aa3c24697757cb47dde3ece94a9fa2a3be65cc244fc5767078c440681",
          "blockNumber": "0x24ce90c",
          "blockTimestamp": "0x69ad3516",
          "transactionHash": "0x6248f35b5fc85cf6315a99056f30a36697a213e284e2991036b629957f9305f5",
          "transactionIndex": "0x0",
          "logIndex": "0x0",
          "removed": false
        }
      ],
      "logsBloom": "0x00000000000000000000000000000000000000000000000000000000000000000000000040000000000000000800000000000000000000000000000000200000000000000000000000000000000000000000000000000000000000000000000000000000000000000000000000001000000000000000000000400000000000000000000000000000000000000200000000000000000000000000000000000000020000000000000000000000000000000000000000000000000000400000000000000000200000000000000000000000000000000000000000000000000000000010000000000000000000000000000000080000000004000000000000000000",
      "type": "0x2",
      "transactionHash": "0x6248f35b5fc85cf6315a99056f30a36697a213e284e2991036b629957f9305f5",
      "transactionIndex": "0x0",
      "blockHash": "0xfa31792aa3c24697757cb47dde3ece94a9fa2a3be65cc244fc5767078c440681",
      "blockNumber": "0x24ce90c",
      "gasUsed": "0xb34a",
      "effectiveGasPrice": "0x210bf3",
      "blobGasPrice": "0x1",
      "from": "0x4b7e14dac8b2713e6481c0e4beddda137c2e8a83",
      "to": "0xf76311bb777bc00fde091b71919ed14738c2ca46",
      "contractAddress": null
    },
    {
      "status": "0x1",
      "cumulativeGasUsed": "0x91091",
      "logs": [
        {
          "address": "0xf76311bb777bc00fde091b71919ed14738c2ca46",
          "topics": [
            "0xddf252ad1be2c89b69c2b068fc378daa952ba7f163c4a11628f55a4df523b3ef",
            "0x0000000000000000000000004b7e14dac8b2713e6481c0e4beddda137c2e8a83",
            "0x00000000000000000000000065abc0f04241c193f7e2e0fc6944866e5f88652b"
          ],
          "data": "0x00000000000000000000000000000000000000000000000000000002540be400",
          "blockHash": "0xfa31792aa3c24697757cb47dde3ece94a9fa2a3be65cc244fc5767078c440681",
          "blockNumber": "0x24ce90c",
          "blockTimestamp": "0x69ad3516",
          "transactionHash": "0xc73ce8ac8539ef9c0f82609dd6445a9d87a22c1ab6f9aa6945d1806c808e5912",
          "transactionIndex": "0x1",
          "logIndex": "0x1",
          "removed": false
        },
        {
          "address": "0xf76311bb777bc00fde091b71919ed14738c2ca46",
          "topics": [
            "0xddf252ad1be2c89b69c2b068fc378daa952ba7f163c4a11628f55a4df523b3ef",
            "0x0000000000000000000000004b7e14dac8b2713e6481c0e4beddda137c2e8a83",
            "0x0000000000000000000000004b7e14dac8b2713e6481c0e4beddda137c2e8a83"
          ],
          "data": "0x000000000000000000000000000000000000000000000000000000003b9aca00",
          "blockHash": "0xfa31792aa3c24697757cb47dde3ece94a9fa2a3be65cc244fc5767078c440681",
          "blockNumber": "0x24ce90c",
          "blockTimestamp": "0x69ad3516",
          "transactionHash": "0xc73ce8ac8539ef9c0f82609dd6445a9d87a22c1ab6f9aa6945d1806c808e5912",
          "transactionIndex": "0x1",
          "logIndex": "0x2",
          "removed": false
        },
        {
          "address": "0x65abc0f04241c193f7e2e0fc6944866e5f88652b",
          "topics": [
            "0x039ad854736757070884dd787ef1a7f58db33546639d1f3efddcf4a33fb8997e",
            "0x0000000000000000000000000000000000000000000000000000000000000000",
            "0x00000000000000000000000082300bd7c3958625581cc2f77bc6464dcecdf3e5"
          ],
          "data": "0x",
          "blockHash": "0xfa31792aa3c24697757cb47dde3ece94a9fa2a3be65cc244fc5767078c440681",
          "blockNumber": "0x24ce90c",
          "blockTimestamp": "0x69ad3516",
          "transactionHash": "0xc73ce8ac8539ef9c0f82609dd6445a9d87a22c1ab6f9aa6945d1806c808e5912",
          "transactionIndex": "0x1",
          "logIndex": "0x3",
          "removed": false
        },
        {
          "address": "0x65abc0f04241c193f7e2e0fc6944866e5f88652b",
          "topics": [
            "0x8be0079c531659141344cd1fd0a4f28419497f9722a3daafe3b4186f6b6457e0",
            "0x0000000000000000000000000000000000000000000000000000000000000000",
            "0x0000000000000000000000005bd4bae80f7b4fde93170ed462228f47880d189f"
          ],
          "data": "0x",
          "blockHash": "0xfa31792aa3c24697757cb47dde3ece94a9fa2a3be65cc244fc5767078c440681",
          "blockNumber": "0x24ce90c",
          "blockTimestamp": "0x69ad3516",
          "transactionHash": "0xc73ce8ac8539ef9c0f82609dd6445a9d87a22c1ab6f9aa6945d1806c808e5912",
          "transactionIndex": "0x1",
          "logIndex": "0x4",
          "removed": false
        },
        {
          "address": "0x69e9850cd398683c90d8c01d26d707cc55eeaa52",
          "topics": [
            "0x039ad854736757070884dd787ef1a7f58db33546639d1f3efddcf4a33fb8997e",
            "0x0000000000000000000000000000000000000000000000000000000000000000",
            "0x00000000000000000000000082300bd7c3958625581cc2f77bc6464dcecdf3e5"
          ],
          "data": "0x",
          "blockHash": "0xfa31792aa3c24697757cb47dde3ece94a9fa2a3be65cc244fc5767078c440681",
          "blockNumber": "0x24ce90c",
          "blockTimestamp": "0x69ad3516",
          "transactionHash": "0xc73ce8ac8539ef9c0f82609dd6445a9d87a22c1ab6f9aa6945d1806c808e5912",
          "transactionIndex": "0x1",
          "logIndex": "0x5",
          "removed": false
        },
        {
          "address": "0x69e9850cd398683c90d8c01d26d707cc55eeaa52",
          "topics": [
            "0x8be0079c531659141344cd1fd0a4f28419497f9722a3daafe3b4186f6b6457e0",
            "0x0000000000000000000000000000000000000000000000000000000000000000",
            "0x00000000000000000000000065abc0f04241c193f7e2e0fc6944866e5f88652b"
          ],
          "data": "0x",
          "blockHash": "0xfa31792aa3c24697757cb47dde3ece94a9fa2a3be65cc244fc5767078c440681",
          "blockNumber": "0x24ce90c",
          "blockTimestamp": "0x69ad3516",
          "transactionHash": "0xc73ce8ac8539ef9c0f82609dd6445a9d87a22c1ab6f9aa6945d1806c808e5912",
          "transactionIndex": "0x1",
          "logIndex": "0x6",
          "removed": false
        },
        {
          "address": "0xf76311bb777bc00fde091b71919ed14738c2ca46",
          "topics": [
            "0x8c5be1e5ebec7d5bd14f71427d1e84f3dd0314c0f7b2291e5b200ac8c7c3b925",
            "0x00000000000000000000000065abc0f04241c193f7e2e0fc6944866e5f88652b",
            "0x00000000000000000000000065abc0f04241c193f7e2e0fc6944866e5f88652b"
          ],
          "data": "0x00000000000000000000000000000000000000000000000000000002540be400",
          "blockHash": "0xfa31792aa3c24697757cb47dde3ece94a9fa2a3be65cc244fc5767078c440681",
          "blockNumber": "0x24ce90c",
          "blockTimestamp": "0x69ad3516",
          "transactionHash": "0xc73ce8ac8539ef9c0f82609dd6445a9d87a22c1ab6f9aa6945d1806c808e5912",
          "transactionIndex": "0x1",
          "logIndex": "0x7",
          "removed": false
        },
        {
          "address": "0x5bd4bae80f7b4fde93170ed462228f47880d189f",
          "topics": [
            "0x8d01162be79b9dd1c1998ba06251c39e082a5d03b2bf6def0c975e79ddd873d8",
            "0x00000000000000000000000065abc0f04241c193f7e2e0fc6944866e5f88652b"
          ],
          "data": "0x0000000000000000000000000000000000000000000000000000000000000040000000000000000000000000000000000000000000000000000000000000008000000000000000000000000000000000000000000000000000000000000000066f70656e6169000000000000000000000000000000000000000000000000000000000000000000000000000000000000000000000000000000000000000000034f41490000000000000000000000000000000000000000000000000000000000",
          "blockHash": "0xfa31792aa3c24697757cb47dde3ece94a9fa2a3be65cc244fc5767078c440681",
          "blockNumber": "0x24ce90c",
          "blockTimestamp": "0x69ad3516",
          "transactionHash": "0xc73ce8ac8539ef9c0f82609dd6445a9d87a22c1ab6f9aa6945d1806c808e5912",
          "transactionIndex": "0x1",
          "logIndex": "0x8",
          "removed": false
        }
      ],
      "logsBloom": "0x00000000000020000040000000000000000000000000000002c02000002000000000200040000140000000000800000000000000000000000000000000200000000000000000000000010008000000000401008040000000000000000000000000000000020000000000000000001800000000000000000000400010000000400000000000000000000000000200000000000000000000000000200000000000020800000008000000000000000000000000000000000000000000400000000000000002200000000000000000000000000000000000010008000000000020000110000000000000000000000000000000088000000004000000000000080000",
      "type": "0x2",
      "transactionHash": "0xc73ce8ac8539ef9c0f82609dd6445a9d87a22c1ab6f9aa6945d1806c808e5912",
      "transactionIndex": "0x1",
      "blockHash": "0xfa31792aa3c24697757cb47dde3ece94a9fa2a3be65cc244fc5767078c440681",
      "blockNumber": "0x24ce90c",
      "gasUsed": "0x85d47",
      "effectiveGasPrice": "0x210bf3",
      "blobGasPrice": "0x1",
      "from": "0x4b7e14dac8b2713e6481c0e4beddda137c2e8a83",
      "to": "0x5bd4bae80f7b4fde93170ed462228f47880d189f",
      "contractAddress": null
    }
  ],
  "libraries": [],
  "pending": [],
  "returns": {},
  "timestamp": 1772958999705,
  "chain": 84532,
  "commit": "ead55f2"
}