{
  "transactions": [
    {
      "hash": "0xa8c3216dbb5c96676b51b5074cd9e5644c759f38b157a5d6696cf8aee668efae",
      "transactionType": "CALL",
      "contractName": null,
      "contractAddress": "0xbed7b33b74b6003a009adee7691bcc4394e64511",
      "function": "mint(address,uint256)",
      "arguments": [
        "0x4b7e14dAC8B2713E6481c0e4bEDdDA137C2E8A83",
        "11000000000"
      ],
      "transaction": {
        "from": "0x4b7e14dac8b2713e6481c0e4beddda137c2e8a83",
        "to": "0xbed7b33b74b6003a009adee7691bcc4394e64511",
        "gas": "0xc2a8",
        "value": "0x0",
        "input": "0x40c10f190000000000000000000000004b7e14dac8b2713e6481c0e4beddda137c2e8a83000000000000000000000000000000000000000000000000000000028fa6ae00",
        "nonce": "0x21",
        "chainId": "0x14a34"
      },
      "additionalContracts": [],
      "isFixedGasLimit": false
    },
    {
      "hash": "0x60420d601eebe92c3b6370a8e906f710ba4c0d48171e7f25c7143bfbd2fb6970",
      "transactionType": "CALL",
      "contractName": null,
      "contractAddress": "0xbed7b33b74b6003a009adee7691bcc4394e64511",
      "function": "approve(address,uint256)",
      "arguments": [
        "0x49ea2E18816cDbdCd011cBF0401d0C8821a8b474",
        "11000000000"
      ],
      "transaction": {
        "from": "0x4b7e14dac8b2713e6481c0e4beddda137c2e8a83",
        "to": "0xbed7b33b74b6003a009adee7691bcc4394e64511",
        "gas": "0x10635",
        "value": "0x0",
        "input": "0x095ea7b300000000000000000000000049ea2e18816cdbdcd011cbf0401d0c8821a8b474000000000000000000000000000000000000000000000000000000028fa6ae00",
        "nonce": "0x22",
        "chainId": "0x14a34"
      },
      "additionalContracts": [],
      "isFixedGasLimit": false
    },
    {
      "hash": "0x87fe78250ffa9a20482caa240827870db270793f46397d1df1c0aef2b049c4bc",
      "transactionType": "CALL",
      "contractName": null,
      "contractAddress": "0x49ea2e18816cdbdcd011cbf0401d0c8821a8b474",
      "function": "createMarketFactory(string,string)",
      "arguments": [
        "iran",
        "IRAN"
      ],
      "transaction": {
        "from": "0x4b7e14dac8b2713e6481c0e4beddda137c2e8a83",
        "to": "0x49ea2e18816cdbdcd011cbf0401d0c8821a8b474",
        "gas": "0xc3aff",
        "value": "0x0",
        "input": "0xc3aba5a70000000000000000000000000000000000000000000000000000000000000040000000000000000000000000000000000000000000000000000000000000008000000000000000000000000000000000000000000000000000000000000000046972616e0000000000000000000000000000000000000000000000000000000000000000000000000000000000000000000000000000000000000000000000044952414e00000000000000000000000000000000000000000000000000000000",
        "nonce": "0x23",
        "chainId": "0x14a34"
      },
      "additionalContracts": [
        {
          "transactionType": "CREATE",
          "contractName": null,
          "address": "0xfeb30fbe85e2773003b954de76071c13c55ff684",
          "initCode": "0x61018d3d81600a3d39f3363d3d373d3d3d363d73118b553b4e7616bf5eef81d30eba329baddade9c5af43d82803e903d91602b57fd5bf3000000000000000000000000bed7b33b74b6003a009adee7691bcc4394e64511000000000000000000000000000000000000000000000000000000000000000800000000000000000000000000000000000000000000000000000000000000e00000000000000000000000000000000000000000000000000000000000000120000000000000000000000000055854f975abfc7d0ead302d2d56053eb02aa730000000000000000000000000f731dc105bf2fbf87af6dcf263a84b70a2359518000000000000000000000000f6e90e452ce8c6b05fb094b23653149494a56b0800000000000000000000000000000000000000000000000000000000000000046972616e0000000000000000000000000000000000000000000000000000000000000000000000000000000000000000000000000000000000000000000000044952414e00000000000000000000000000000000000000000000000000000000"
        },
        {
          "transactionType": "CREATE",
          "contractName": null,
          "address": "0x4754b77da135c8c27aad22573ed82ad095fadbfe",
          "initCode": "0x6100ad3d81600a3d39f3363d3d373d3d3d363d73f731dc105bf2fbf87af6dcf263a84b70a23595185af43d82803e903d91602b57fd5bf30000000000000000000000000000000000000000000000000000000000000008000000000000000000000000000000000000000000000000000000000000004000000000000000000000000000000000000000000000000000000000000000046972616e00000000000000000000000000000000000000000000000000000000"
        }
      ],
      "isFixedGasLimit": false
    }
  ],
  "receipts": [
    {
      "status": "0x1",
      "cumulativeGasUsed": "0x8cef",
      "logs": [
        {
          "address": "0xbed7b33b74b6003a009adee7691bcc4394e64511",
          "topics": [
            "0xddf252ad1be2c89b69c2b068fc378daa952ba7f163c4a11628f55a4df523b3ef",
            "0x0000000000000000000000000000000000000000000000000000000000000000",
            "0x0000000000000000000000004b7e14dac8b2713e6481c0e4beddda137c2e8a83"
          ],
          "data": "0x000000000000000000000000000000000000000000000000000000028fa6ae00",
          "blockHash": "0x52a9e0261b3f80e1692f4ec558148574e88a94b11fdd213d0f2d464cf389ccf5",
          "blockNumber": "0x24a36ce",
          "blockTimestamp": "0x69a7cfae",
          "transactionHash": "0xa8c3216dbb5c96676b51b5074cd9e5644c759f38b157a5d6696cf8aee668efae",
          "transactionIndex": "0x0",
          "logIndex": "0x0",
          "removed": false
        }
      ],
      "logsBloom": "0x00000000000000000000000000000000000000000000000000000000000000000000000000000000000000000800000000000000000000000000000000000000000000000000000000000008000000000000000010000000000000000000000000000000020000000000000000000800000000000000000000400010000020000000000000000000000000000200000000000000000000000000000000000000000000000000000000000000000000000000000000000000000000000000000000000002000000000000000000000000000000100000000000000000000020000000000000000000000000000000000000000000000000000000000000000000",
      "type": "0x2",
      "transactionHash": "0xa8c3216dbb5c96676b51b5074cd9e5644c759f38b157a5d6696cf8aee668efae",
      "transactionIndex": "0x0",
      "blockHash": "0x52a9e0261b3f80e1692f4ec558148574e88a94b11fdd213d0f2d464cf389ccf5",
      "blockNumber": "0x24a36ce",
      "gasUsed": "0x8cef",
      "effectiveGasPrice": "0x23936d",
      "blobGasPrice": "0x1",
      "from": "0x4b7e14dac8b2713e6481c0e4beddda137c2e8a83",
      "to": "0xbed7b33b74b6003a009adee7691bcc4394e64511",
      "contractAddress": null
    },
    {
      "status": "0x1",
      "cumulativeGasUsed": "0xb34a",
      "logs": [
        {
          "address": "0xbed7b33b74b6003a009adee7691bcc4394e64511",
          "topics": [
            "0x8c5be1e5ebec7d5bd14f71427d1e84f3dd0314c0f7b2291e5b200ac8c7c3b925",
            "0x0000000000000000000000004b7e14dac8b2713e6481c0e4beddda137c2e8a83",
            "0x00000000000000000000000049ea2e18816cdbdcd011cbf0401d0c8821a8b474"
          ],
          "data": "0x000000000000000000000000000000000000000000000000000000028fa6ae00",
          "blockHash": "0xab9ede159dd24204953720e961973614bfe38657853cec5cd5f97934709cbd9d",
          "blockNumber": "0x24a36cf",
          "blockTimestamp": "0x69a7cfae",
          "transactionHash": "0x60420d601eebe92c3b6370a8e906f710ba4c0d48171e7f25c7143bfbd2fb6970",
          "transactionIndex": "0x0",
          "logIndex": "0x0",
          "removed": false
        }
      ],
      "logsBloom": "0x00000000000000000000000000000000000000000000000000000000000000000000000000000000000000000800000000000000000000000000000000200000000000000000000000000000000000000000000010000000000000000000000000000000000000000000000000000000000000000000000000400000000020000000008000000000000000000200000000000000000000000000000000000000020000000000000000000000000000000000000000000000000000000000000000000000000000000000000000000040000000100000000000000000000000000010000000000000800000000000000000000000000000000000000000000000",
      "type": "0x2",
      "transactionHash": "0x60420d601eebe92c3b6370a8e906f710ba4c0d48171e7f25c7143bfbd2fb6970",
      "transactionIndex": "0x0",
      "blockHash": "0xab9ede159dd24204953720e961973614bfe38657853cec5cd5f97934709cbd9d",
      "blockNumber": "0x24a36cf",
      "gasUsed": "0xb34a",
      "effectiveGasPrice": "0x210968",
      "blobGasPrice": "0x1",
      "from": "0x4b7e14dac8b2713e6481c0e4beddda137c2e8a83",
      "to": "0xbed7b33b74b6003a009adee7691bcc4394e64511",
      "contractAddress": null
    },
    {
      "status": "0x1",
      "cumulativeGasUsed": "0x91025",
      "logs": [
        {
          "address": "0xbed7b33b74b6003a009adee7691bcc4394e64511",
          "topics": [
            "0xddf252ad1be2c89b69c2b068fc378daa952ba7f163c4a11628f55a4df523b3ef",
            "0x0000000000000000000000004b7e14dac8b2713e6481c0e4beddda137c2e8a83",
            "0x000000000000000000000000feb30fbe85e2773003b954de76071c13c55ff684"
          ],
          "data": "0x00000000000000000000000000000000000000000000000000000002540be400",
          "blockHash": "0xab9ede159dd24204953720e961973614bfe38657853cec5cd5f97934709cbd9d",
          "blockNumber": "0x24a36cf",
          "blockTimestamp": "0x69a7cfae",
          "transactionHash": "0x87fe78250ffa9a20482caa240827870db270793f46397d1df1c0aef2b049c4bc",
          "transactionIndex": "0x1",
          "logIndex": "0x1",
          "removed": false
        },
        {
          "address": "0xbed7b33b74b6003a009adee7691bcc4394e64511",
          "topics": [
            "0xddf252ad1be2c89b69c2b068fc378daa952ba7f163c4a11628f55a4df523b3ef",
            "0x0000000000000000000000004b7e14dac8b2713e6481c0e4beddda137c2e8a83",
            "0x0000000000000000000000004b7e14dac8b2713e6481c0e4beddda137c2e8a83"
          ],
          "data": "0x000000000000000000000000000000000000000000000000000000003b9aca00",
          "blockHash": "0xab9ede159dd24204953720e961973614bfe38657853cec5cd5f97934709cbd9d",
          "blockNumber": "0x24a36cf",
          "blockTimestamp": "0x69a7cfae",
          "transactionHash": "0x87fe78250ffa9a20482caa240827870db270793f46397d1df1c0aef2b049c4bc",
          "transactionIndex": "0x1",
          "logIndex": "0x2",
          "removed": false
        },
        {
          "address": "0xfeb30fbe85e2773003b954de76071c13c55ff684",
          "topics": [
            "0x039ad854736757070884dd787ef1a7f58db33546639d1f3efddcf4a33fb8997e",
            "0x0000000000000000000000000000000000000000000000000000000000000000",
            "0x00000000000000000000000082300bd7c3958625581cc2f77bc6464dcecdf3e5"
          ],
          "data": "0x",
          "blockHash": "0xab9ede159dd24204953720e961973614bfe38657853cec5cd5f97934709cbd9d",
          "blockNumber": "0x24a36cf",
          "blockTimestamp": "0x69a7cfae",
          "transactionHash": "0x87fe78250ffa9a20482caa240827870db270793f46397d1df1c0aef2b049c4bc",
          "transactionIndex": "0x1",
          "logIndex": "0x3",
          "removed": false
        },
        {
          "address": "0xfeb30fbe85e2773003b954de76071c13c55ff684",
          "topics": [
            "0x8be0079c531659141344cd1fd0a4f28419497f9722a3daafe3b4186f6b6457e0",
            "0x0000000000000000000000000000000000000000000000000000000000000000",
            "0x00000000000000000000000049ea2e18816cdbdcd011cbf0401d0c8821a8b474"
          ],
          "data": "0x",
          "blockHash": "0xab9ede159dd24204953720e961973614bfe38657853cec5cd5f97934709cbd9d",
          "blockNumber": "0x24a36cf",
          "blockTimestamp": "0x69a7cfae",
          "transactionHash": "0x87fe78250ffa9a20482caa240827870db270793f46397d1df1c0aef2b049c4bc",
          "transactionIndex": "0x1",
          "logIndex": "0x4",
          "removed": false
        },
        {
          "address": "0x4754b77da135c8c27aad22573ed82ad095fadbfe",
          "topics": [
            "0x039ad854736757070884dd787ef1a7f58db33546639d1f3efddcf4a33fb8997e",
            "0x0000000000000000000000000000000000000000000000000000000000000000",
            "0x00000000000000000000000082300bd7c3958625581cc2f77bc6464dcecdf3e5"
          ],
          "data": "0x",
          "blockHash": "0xab9ede159dd24204953720e961973614bfe38657853cec5cd5f97934709cbd9d",
          "blockNumber": "0x24a36cf",
          "blockTimestamp": "0x69a7cfae",
          "transactionHash": "0x87fe78250ffa9a20482caa240827870db270793f46397d1df1c0aef2b049c4bc",
          "transactionIndex": "0x1",
          "logIndex": "0x5",
          "removed": false
        },
        {
          "address": "0x4754b77da135c8c27aad22573ed82ad095fadbfe",
          "topics": [
            "0x8be0079c531659141344cd1fd0a4f28419497f9722a3daafe3b4186f6b6457e0",
            "0x0000000000000000000000000000000000000000000000000000000000000000",
            "0x000000000000000000000000feb30fbe85e2773003b954de76071c13c55ff684"
          ],
          "data": "0x",
          "blockHash": "0xab9ede159dd24204953720e961973614bfe38657853cec5cd5f97934709cbd9d",
          "blockNumber": "0x24a36cf",
          "blockTimestamp": "0x69a7cfae",
          "transactionHash": "0x87fe78250ffa9a20482caa240827870db270793f46397d1df1c0aef2b049c4bc",
          "transactionIndex": "0x1",
          "logIndex": "0x6",
          "removed": false
        },
        {
          "address": "0xbed7b33b74b6003a009adee7691bcc4394e64511",
          "topics": [
            "0x8c5be1e5ebec7d5bd14f71427d1e84f3dd0314c0f7b2291e5b200ac8c7c3b925",
            "0x000000000000000000000000feb30fbe85e2773003b954de76071c13c55ff684",
            "0x000000000000000000000000feb30fbe85e2773003b954de76071c13c55ff684"
          ],
          "data": "0x00000000000000000000000000000000000000000000000000000002540be400",
          "blockHash": "0xab9ede159dd24204953720e961973614bfe38657853cec5cd5f97934709cbd9d",
          "blockNumber": "0x24a36cf",
          "blockTimestamp": "0x69a7cfae",
          "transactionHash": "0x87fe78250ffa9a20482caa240827870db270793f46397d1df1c0aef2b049c4bc",
          "transactionIndex": "0x1",
          "logIndex": "0x7",
          "removed": false
        },
        {
          "address": "0x49ea2e18816cdbdcd011cbf0401d0c8821a8b474",
          "topics": [
            "0x8d01162be79b9dd1c1998ba06251c39e082a5d03b2bf6def0c975e79ddd873d8",
            "0x000000000000000000000000feb30fbe85e2773003b954de76071c13c55ff684"
          ],
          "data": "0x0000000000000000000000000000000000000000000000000000000000000040000000000000000000000000000000000000000000000000000000000000008000000000000000000000000000000000000000000000000000000000000000046972616e0000000000000000000000000000000000000000000000000000000000000000000000000000000000000000000000000000000000000000000000044952414e00000000000000000000000000000000000000000000000000000000",
          "blockHash": "0xab9ede159dd24204953720e961973614bfe38657853cec5cd5f97934709cbd9d",
          "blockNumber": "0x24a36cf",
          "blockTimestamp": "0x69a7cfae",
          "transactionHash": "0x87fe78250ffa9a20482caa240827870db270793f46397d1df1c0aef2b049c4bc",
          "transactionIndex": "0x1",
          "logIndex": "0x8",
          "removed": false
        }
      ],
      "logsBloom": "0x00000000000020000000200000000000000000000000000002800000002000000000200000000000000000000800000000000000000000000000000000200000000001000000000000010018000000004401000050000000000000000000000000000000020000000000000000000800000000000000008000400010000020400000008000000000000000000200000001000000000000000000000008000000020000000000000000010000000000000000000000000000000000000000000000000002000000000000000000080040000000100000000008000000000020000010000000040000800020000000000000000000000000000000000000280000",
      "type": "0x2",
      "transactionHash": "0x87fe78250ffa9a20482caa240827870db270793f46397d1df1c0aef2b049c4bc",
      "transactionIndex": "0x1",
      "blockHash": "0xab9ede159dd24204953720e961973614bfe38657853cec5cd5f97934709cbd9d",
      "blockNumber": "0x24a36cf",
      "gasUsed": "0x85cdb",
      "effectiveGasPrice": "0x210968",
      "blobGasPrice": "0x1",
      "from": "0x4b7e14dac8b2713e6481c0e4beddda137c2e8a83",
      "to": "0x49ea2e18816cdbdcd011cbf0401d0c8821a8b474",
      "contractAddress": null
    }
  ],
  "libraries": [],
  "pending": [],
  "returns": {},
  "timestamp": 1772605359852,
  "chain": 84532,
  "commit": "8b55482"
}