{
  "transactions": [
    {
      "hash": "0xb8c21664bca08902d9c7cd3c716806316b2c2ea98a19b381932400428419f44c",
      "transactionType": "CALL",
      "contractName": null,
      "contractAddress": "0xf77d50613b6c976fdaca69751a5363af7dd5ecb7",
      "function": "mint(address,uint256)",
      "arguments": [
        "0x4b7e14dAC8B2713E6481c0e4bEDdDA137C2E8A83",
        "11000000000"
      ],
      "transaction": {
        "from": "0x4b7e14dac8b2713e6481c0e4beddda137c2e8a83",
        "to": "0xf77d50613b6c976fdaca69751a5363af7dd5ecb7",
        "gas": "0x17b30",
        "value": "0x0",
        "input": "0x40c10f190000000000000000000000004b7e14dac8b2713e6481c0e4beddda137c2e8a83000000000000000000000000000000000000000000000000000000028fa6ae00",
        "nonce": "0x13",
        "chainId": "0x14a34"
      },
      "additionalContracts": [],
      "isFixedGasLimit": false
    },
    {
      "hash": "0x0e0fc5af183463f84b8d441f22d854671f773a85799706fa19801bf9f48daccf",
      "transactionType": "CALL",
      "contractName": null,
      "contractAddress": "0xf77d50613b6c976fdaca69751a5363af7dd5ecb7",
      "function": "approve(address,uint256)",
      "arguments": [
        "0xa3f54d74E54e6Dd8Ed41273cef57c7D221Bf7f73",
        "11000000000"
      ],
      "transaction": {
        "from": "0x4b7e14dac8b2713e6481c0e4beddda137c2e8a83",
        "to": "0xf77d50613b6c976fdaca69751a5363af7dd5ecb7",
        "gas": "0x10635",
        "value": "0x0",
        "input": "0x095ea7b3000000000000000000000000a3f54d74e54e6dd8ed41273cef57c7d221bf7f73000000000000000000000000000000000000000000000000000000028fa6ae00",
        "nonce": "0x14",
        "chainId": "0x14a34"
      },
      "additionalContracts": [],
      "isFixedGasLimit": false
    },
    {
      "hash": "0x75467848178a1035202ea2b5d0fdf8a20e79c444a8e127b26495d91de38ee4ac",
      "transactionType": "CALL",
      "contractName": null,
      "contractAddress": "0xa3f54d74e54e6dd8ed41273cef57c7d221bf7f73",
      "function": "createMarketFactory(string,string)",
      "arguments": [
        "donald trump",
        "TRUMP"
      ],
      "transaction": {
        "from": "0x4b7e14dac8b2713e6481c0e4beddda137c2e8a83",
        "to": "0xa3f54d74e54e6dd8ed41273cef57c7d221bf7f73",
        "gas": "0xca23e",
        "value": "0x0",
        "input": "0xc3aba5a700000000000000000000000000000000000000000000000000000000000000400000000000000000000000000000000000000000000000000000000000000080000000000000000000000000000000000000000000000000000000000000000c646f6e616c64207472756d70000000000000000000000000000000000000000000000000000000000000000000000000000000000000000000000000000000055452554d50000000000000000000000000000000000000000000000000000000",
        "nonce": "0x15",
        "chainId": "0x14a34"
      },
      "additionalContracts": [
        {
          "transactionType": "CREATE",
          "contractName": null,
          "address": "0xaf05e4f10eb19b047300e1a0ef504ba90d1c0743",
          "initCode": "0x61018d3d81600a3d39f3363d3d373d3d3d363d73d6503e40cb080db2208e4582e9661bf4e91afc4d5af43d82803e903d91602b57fd5bf3000000000000000000000000f77d50613b6c976fdaca69751a5363af7dd5ecb7000000000000000000000000000000000000000000000000000000000000000800000000000000000000000000000000000000000000000000000000000000e000000000000000000000000000000000000000000000000000000000000001200000000000000000000000007d43d579ca00eb6728b2f22a4cd502d04850c88a0000000000000000000000003a12851c828e4997449e8aaea6a0d15f187da04b000000000000000000000000fe90e6f520977af8c95e6bcf1d53bd5ea59698b0000000000000000000000000000000000000000000000000000000000000000c646f6e616c64207472756d70000000000000000000000000000000000000000000000000000000000000000000000000000000000000000000000000000000055452554d50000000000000000000000000000000000000000000000000000000"
        },
        {
          "transactionType": "CREATE",
          "contractName": null,
          "address": "0x63ce0e422ec8a54c69743781e025d6380d7d6a69",
          "initCode": "0x6100ad3d81600a3d39f3363d3d373d3d3d363d733a12851c828e4997449e8aaea6a0d15f187da04b5af43d82803e903d91602b57fd5bf300000000000000000000000000000000000000000000000000000000000000080000000000000000000000000000000000000000000000000000000000000040000000000000000000000000000000000000000000000000000000000000000c646f6e616c64207472756d700000000000000000000000000000000000000000"
        }
      ],
      "isFixedGasLimit": false
    }
  ],
  "receipts": [
    {
      "status": "0x1",
      "cumulativeGasUsed": "0x11287",
      "logs": [
        {
          "address": "0xf77d50613b6c976fdaca69751a5363af7dd5ecb7",
          "topics": [
            "0xddf252ad1be2c89b69c2b068fc378daa952ba7f163c4a11628f55a4df523b3ef",
            "0x0000000000000000000000000000000000000000000000000000000000000000",
            "0x0000000000000000000000004b7e14dac8b2713e6481c0e4beddda137c2e8a83"
          ],
          "data": "0x000000000000000000000000000000000000000000000000000000028fa6ae00",
          "blockHash": "0x95ef8d3cb678f3245daccbaabe0856686cb4b568a972dfacf4938acb667127f4",
          "blockNumber": "0x249e8f6",
          "blockTimestamp": "0x69a730dd",
          "transactionHash": "0xb8c21664bca08902d9c7cd3c716806316b2c2ea98a19b381932400428419f44c",
          "transactionIndex": "0x0",
          "logIndex": "0x0",
          "removed": false
        }
      ],
      "logsBloom": "0x00000000000000000000000000000000000000000000000000000000000000000000000000000400000000000800000000000000000000000000000000000000000000000000000000000008000000000000000000000000000000000000000000000000020000000000000000000800000000000000000000400010000000000000000008000000000000000200000000000000000000000000000000000000000000000000000000000000000000000000000000000000000000000000000000000002000000000000000000000000000000000000000000000000000020000000000000000000000000000000000000000000000000000400000000000000",
      "type": "0x2",
      "transactionHash": "0xb8c21664bca08902d9c7cd3c716806316b2c2ea98a19b381932400428419f44c",
      "transactionIndex": "0x0",
      "blockHash": "0x95ef8d3cb678f3245daccbaabe0856686cb4b568a972dfacf4938acb667127f4",
      "blockNumber": "0x249e8f6",
      "gasUsed": "0x11287",
      "effectiveGasPrice": "0x42fbae",
      "blobGasPrice": "0x1",
      "from": "0x4b7e14dac8b2713e6481c0e4beddda137c2e8a83",
      "to": "0xf77d50613b6c976fdaca69751a5363af7dd5ecb7",
      "contractAddress": null
    },
    {
      "status": "0x1",
      "cumulativeGasUsed": "0xb34a",
      "logs": [
        {
          "address": "0xf77d50613b6c976fdaca69751a5363af7dd5ecb7",
          "topics": [
            "0x8c5be1e5ebec7d5bd14f71427d1e84f3dd0314c0f7b2291e5b200ac8c7c3b925",
            "0x0000000000000000000000004b7e14dac8b2713e6481c0e4beddda137c2e8a83",
            "0x000000000000000000000000a3f54d74e54e6dd8ed41273cef57c7d221bf7f73"
          ],
          "data": "0x000000000000000000000000000000000000000000000000000000028fa6ae00",
          "blockHash": "0x1f6c3b88b290dd8f2b39004a2a8ba4f365d3b0bd1f7d2bbe7208eb961c1bf0cb",
          "blockNumber": "0x249e8f7",
          "blockTimestamp": "0x69a730dd",
          "transactionHash": "0x75467848178a1035202ea2b5d0fdf8a20e79c444a8e127b26495d91de38ee4ac",
          "transactionIndex": "0x0",
          "logIndex": "0x0",
          "removed": false
        }
      ],
      "logsBloom": "0x00000000000000000000000000000000000000000000000000000000000000000000000000000400000000000800000000000000000000000000000000200000000000000000000000000000000000000000000000000000000000000000000000000000000000000000000000000000000000000000000000400000000000000000000008000000000000000200000000000000000000000000010000000000020000400000000000000000000000000000000000000000000000000000000000000000000000000000000000000000000000000000000000000000000000000010000000000000000000000000000000000000000000000600000000000000",
      "type": "0x2",
      "transactionHash": "0x75467848178a1035202ea2b5d0fdf8a20e79c444a8e127b26495d91de38ee4ac",
      "transactionIndex": "0x0",
      "blockHash": "0x1f6c3b88b290dd8f2b39004a2a8ba4f365d3b0bd1f7d2bbe7208eb961c1bf0cb",
      "blockNumber": "0x249e8f7",
      "gasUsed": "0xb34a",
      "effectiveGasPrice": "0x3c8520",
      "blobGasPrice": "0x1",
      "from": "0x4b7e14dac8b2713e6481c0e4beddda137c2e8a83",
      "to": "0xf77d50613b6c976fdaca69751a5363af7dd5ecb7",
      "contractAddress": null
    },
    {
      "status": "0x1",
      "cumulativeGasUsed": "0x956bd",
      "logs": [
        {
          "address": "0xf77d50613b6c976fdaca69751a5363af7dd5ecb7",
          "topics": [
            "0xddf252ad1be2c89b69c2b068fc378daa952ba7f163c4a11628f55a4df523b3ef",
            "0x0000000000000000000000004b7e14dac8b2713e6481c0e4beddda137c2e8a83",
            "0x000000000000000000000000af05e4f10eb19b047300e1a0ef504ba90d1c0743"
          ],
          "data": "0x00000000000000000000000000000000000000000000000000000002540be400",
          "blockHash": "0x1f6c3b88b290dd8f2b39004a2a8ba4f365d3b0bd1f7d2bbe7208eb961c1bf0cb",
          "blockNumber": "0x249e8f7",
          "blockTimestamp": "0x69a730dd",
          "transactionHash": "0x0e0fc5af183463f84b8d441f22d854671f773a85799706fa19801bf9f48daccf",
          "transactionIndex": "0x1",
          "logIndex": "0x1",
          "removed": false
        },
        {
          "address": "0xf77d50613b6c976fdaca69751a5363af7dd5ecb7",
          "topics": [
            "0xddf252ad1be2c89b69c2b068fc378daa952ba7f163c4a11628f55a4df523b3ef",
            "0x0000000000000000000000004b7e14dac8b2713e6481c0e4beddda137c2e8a83",
            "0x0000000000000000000000004b7e14dac8b2713e6481c0e4beddda137c2e8a83"
          ],
          "data": "0x000000000000000000000000000000000000000000000000000000003b9aca00",
          "blockHash": "0x1f6c3b88b290dd8f2b39004a2a8ba4f365d3b0bd1f7d2bbe7208eb961c1bf0cb",
          "blockNumber": "0x249e8f7",
          "blockTimestamp": "0x69a730dd",
          "transactionHash": "0x0e0fc5af183463f84b8d441f22d854671f773a85799706fa19801bf9f48daccf",
          "transactionIndex": "0x1",
          "logIndex": "0x2",
          "removed": false
        },
        {
          "address": "0xaf05e4f10eb19b047300e1a0ef504ba90d1c0743",
          "topics": [
            "0x039ad854736757070884dd787ef1a7f58db33546639d1f3efddcf4a33fb8997e",
            "0x0000000000000000000000000000000000000000000000000000000000000000",
            "0x00000000000000000000000082300bd7c3958625581cc2f77bc6464dcecdf3e5"
          ],
          "data": "0x",
          "blockHash": "0x1f6c3b88b290dd8f2b39004a2a8ba4f365d3b0bd1f7d2bbe7208eb961c1bf0cb",
          "blockNumber": "0x249e8f7",
          "blockTimestamp": "0x69a730dd",
          "transactionHash": "0x0e0fc5af183463f84b8d441f22d854671f773a85799706fa19801bf9f48daccf",
          "transactionIndex": "0x1",
          "logIndex": "0x3",
          "removed": false
        },
        {
          "address": "0xaf05e4f10eb19b047300e1a0ef504ba90d1c0743",
          "topics": [
            "0x8be0079c531659141344cd1fd0a4f28419497f9722a3daafe3b4186f6b6457e0",
            "0x0000000000000000000000000000000000000000000000000000000000000000",
            "0x000000000000000000000000a3f54d74e54e6dd8ed41273cef57c7d221bf7f73"
          ],
          "data": "0x",
          "blockHash": "0x1f6c3b88b290dd8f2b39004a2a8ba4f365d3b0bd1f7d2bbe7208eb961c1bf0cb",
          "blockNumber": "0x249e8f7",
          "blockTimestamp": "0x69a730dd",
          "transactionHash": "0x0e0fc5af183463f84b8d441f22d854671f773a85799706fa19801bf9f48daccf",
          "transactionIndex": "0x1",
          "logIndex": "0x4",
          "removed": false
        },
        {
          "address": "0x63ce0e422ec8a54c69743781e025d6380d7d6a69",
          "topics": [
            "0x039ad854736757070884dd787ef1a7f58db33546639d1f3efddcf4a33fb8997e",
            "0x0000000000000000000000000000000000000000000000000000000000000000",
            "0x00000000000000000000000082300bd7c3958625581cc2f77bc6464dcecdf3e5"
          ],
          "data": "0x",
          "blockHash": "0x1f6c3b88b290dd8f2b39004a2a8ba4f365d3b0bd1f7d2bbe7208eb961c1bf0cb",
          "blockNumber": "0x249e8f7",
          "blockTimestamp": "0x69a730dd",
          "transactionHash": "0x0e0fc5af183463f84b8d441f22d854671f773a85799706fa19801bf9f48daccf",
          "transactionIndex": "0x1",
          "logIndex": "0x5",
          "removed": false
        },
        {
          "address": "0x63ce0e422ec8a54c69743781e025d6380d7d6a69",
          "topics": [
            "0x8be0079c531659141344cd1fd0a4f28419497f9722a3daafe3b4186f6b6457e0",
            "0x0000000000000000000000000000000000000000000000000000000000000000",
            "0x000000000000000000000000af05e4f10eb19b047300e1a0ef504ba90d1c0743"
          ],
          "data": "0x",
          "blockHash": "0x1f6c3b88b290dd8f2b39004a2a8ba4f365d3b0bd1f7d2bbe7208eb961c1bf0cb",
          "blockNumber": "0x249e8f7",
          "blockTimestamp": "0x69a730dd",
          "transactionHash": "0x0e0fc5af183463f84b8d441f22d854671f773a85799706fa19801bf9f48daccf",
          "transactionIndex": "0x1",
          "logIndex": "0x6",
          "removed": false
        },
        {
          "address": "0xf77d50613b6c976fdaca69751a5363af7dd5ecb7",
          "topics": [
            "0x8c5be1e5ebec7d5bd14f71427d1e84f3dd0314c0f7b2291e5b200ac8c7c3b925",
            "0x000000000000000000000000af05e4f10eb19b047300e1a0ef504ba90d1c0743",
            "0x000000000000000000000000af05e4f10eb19b047300e1a0ef504ba90d1c0743"
          ],
          "data": "0x00000000000000000000000000000000000000000000000000000002540be400",
          "blockHash": "0x1f6c3b88b290dd8f2b39004a2a8ba4f365d3b0bd1f7d2bbe7208eb961c1bf0cb",
          "blockNumber": "0x249e8f7",
          "blockTimestamp": "0x69a730dd",
          "transactionHash": "0x0e0fc5af183463f84b8d441f22d854671f773a85799706fa19801bf9f48daccf",
          "transactionIndex": "0x1",
          "logIndex": "0x7",
          "removed": false
        },
        {
          "address": "0xa3f54d74e54e6dd8ed41273cef57c7d221bf7f73",
          "topics": [
            "0x8d01162be79b9dd1c1998ba06251c39e082a5d03b2bf6def0c975e79ddd873d8",
            "0x000000000000000000000000af05e4f10eb19b047300e1a0ef504ba90d1c0743"
          ],
          "data": "0x00000000000000000000000000000000000000000000000000000000000000400000000000000000000000000000000000000000000000000000000000000080000000000000000000000000000000000000000000000000000000000000000c646f6e616c64207472756d70000000000000000000000000000000000000000000000000000000000000000000000000000000000000000000000000000000055452554d50000000000000000000000000000000000000000000000000000000",
          "blockHash": "0x1f6c3b88b290dd8f2b39004a2a8ba4f365d3b0bd1f7d2bbe7208eb961c1bf0cb",
          "blockNumber": "0x249e8f7",
          "blockTimestamp": "0x69a730dd",
          "transactionHash": "0x0e0fc5af183463f84b8d441f22d854671f773a85799706fa19801bf9f48daccf",
          "transactionIndex": "0x1",
          "logIndex": "0x8",
          "removed": false
        }
      ],
      "logsBloom": "0x00000000000020000000000000000000000000000000000002800000002110000000200000000400100000000800000000000000000000000000000000210000000000000000000000090008000000000401000040000000001000000000000000000000020000000000000000000810000000000020000000400010000000400000000008000000000000000200000000000000000000000000010000000000020000400000000000000000000000000000000000000000000000000000000000000002000000000040000000000000000000000000000008000000000020000010000000000000000000800000000000400000000000000600000001080000",
      "type": "0x2",
      "transactionHash": "0x0e0fc5af183463f84b8d441f22d854671f773a85799706fa19801bf9f48daccf",
      "transactionIndex": "0x1",
      "blockHash": "0x1f6c3b88b290dd8f2b39004a2a8ba4f365d3b0bd1f7d2bbe7208eb961c1bf0cb",
      "blockNumber": "0x249e8f7",
      "gasUsed": "0x8a373",
      "effectiveGasPrice": "0x3c8520",
      "blobGasPrice": "0x1",
      "from": "0x4b7e14dac8b2713e6481c0e4beddda137c2e8a83",
      "to": "0xa3f54d74e54e6dd8ed41273cef57c7d221bf7f73",
      "contractAddress": null
    }
  ],
  "libraries": [],
  "pending": [],
  "returns": {},
  "timestamp": 1772564703493,
  "chain": 84532,
  "commit": "29304fa"
}