{
  "transactions": [
    {
      "hash": "0x1dc2e869386c477648b968ffcdb1632062b139789693615a7848f6b4c731b792",
      "transactionType": "CALL",
      "contractName": null,
      "contractAddress": "0xbed7b33b74b6003a009adee7691bcc4394e64511",
      "function": "mint(address,uint256)",
      "arguments": [
        "0x4b7e14dAC8B2713E6481c0e4bEDdDA137C2E8A83",
        "11000000000"
      ],
      "transaction": {
        "from": "0x4b7e14dac8b2713e6481c0e4beddda137c2e8a83",
        "to": "0xbed7b33b74b6003a009adee7691bcc4394e64511",
        "gas": "0x17b30",
        "value": "0x0",
        "input": "0x40c10f190000000000000000000000004b7e14dac8b2713e6481c0e4beddda137c2e8a83000000000000000000000000000000000000000000000000000000028fa6ae00",
        "nonce": "0x17",
        "chainId": "0x14a34"
      },
      "additionalContracts": [],
      "isFixedGasLimit": false
    },
    {
      "hash": "0x236deb80d4a72ef07ecafe880f0d1ecbb87f82730ff304b47e4e5ffc605e1303",
      "transactionType": "CALL",
      "contractName": null,
      "contractAddress": "0xbed7b33b74b6003a009adee7691bcc4394e64511",
      "function": "approve(address,uint256)",
      "arguments": [
        "0x49ea2E18816cDbdCd011cBF0401d0C8821a8b474",
        "11000000000"
      ],
      "transaction": {
        "from": "0x4b7e14dac8b2713e6481c0e4beddda137c2e8a83",
        "to": "0xbed7b33b74b6003a009adee7691bcc4394e64511",
        "gas": "0x10635",
        "value": "0x0",
        "input": "0x095ea7b300000000000000000000000049ea2e18816cdbdcd011cbf0401d0c8821a8b474000000000000000000000000000000000000000000000000000000028fa6ae00",
        "nonce": "0x18",
        "chainId": "0x14a34"
      },
      "additionalContracts": [],
      "isFixedGasLimit": false
    },
    {
      "hash": "0x7c238803e2723d146ee22f8a1902e7328ef631facf698f4fed3921b84f8ce35e",
      "transactionType": "CALL",
      "contractName": null,
      "contractAddress": "0x49ea2e18816cdbdcd011cbf0401d0c8821a8b474",
      "function": "createMarketFactory(string,string)",
      "arguments": [
        "donald trump",
        "TRUMP"
      ],
      "transaction": {
        "from": "0x4b7e14dac8b2713e6481c0e4beddda137c2e8a83",
        "to": "0x49ea2e18816cdbdcd011cbf0401d0c8821a8b474",
        "gas": "0xca23e",
        "value": "0x0",
        "input": "0xc3aba5a700000000000000000000000000000000000000000000000000000000000000400000000000000000000000000000000000000000000000000000000000000080000000000000000000000000000000000000000000000000000000000000000c646f6e616c64207472756d70000000000000000000000000000000000000000000000000000000000000000000000000000000000000000000000000000000055452554d50000000000000000000000000000000000000000000000000000000",
        "nonce": "0x19",
        "chainId": "0x14a34"
      },
      "additionalContracts": [
        {
          "transactionType": "CREATE",
          "contractName": null,
          "address": "0x6c40b13536b71c2be81ea2ce80cc0f0962647ac5",
          "initCode": "0x61018d3d81600a3d39f3363d3d373d3d3d363d73118b553b4e7616bf5eef81d30eba329baddade9c5af43d82803e903d91602b57fd5bf3000000000000000000000000bed7b33b74b6003a009adee7691bcc4394e64511000000000000000000000000000000000000000000000000000000000000000800000000000000000000000000000000000000000000000000000000000000e00000000000000000000000000000000000000000000000000000000000000120000000000000000000000000055854f975abfc7d0ead302d2d56053eb02aa730000000000000000000000000f731dc105bf2fbf87af6dcf263a84b70a2359518000000000000000000000000f6e90e452ce8c6b05fb094b23653149494a56b08000000000000000000000000000000000000000000000000000000000000000c646f6e616c64207472756d70000000000000000000000000000000000000000000000000000000000000000000000000000000000000000000000000000000055452554d50000000000000000000000000000000000000000000000000000000"
        },
        {
          "transactionType": "CREATE",
          "contractName": null,
          "address": "0xacf26743a50f3cfab8ffc00cec7661275b7355e2",
          "initCode": "0x6100ad3d81600a3d39f3363d3d373d3d3d363d73f731dc105bf2fbf87af6dcf263a84b70a23595185af43d82803e903d91602b57fd5bf300000000000000000000000000000000000000000000000000000000000000080000000000000000000000000000000000000000000000000000000000000040000000000000000000000000000000000000000000000000000000000000000c646f6e616c64207472756d700000000000000000000000000000000000000000"
        }
      ],
      "isFixedGasLimit": false
    }
  ],
  "receipts": [
    {
      "status": "0x1",
      "cumulativeGasUsed": "0x11287",
      "logs": [
        {
          "address": "0xbed7b33b74b6003a009adee7691bcc4394e64511",
          "topics": [
            "0xddf252ad1be2c89b69c2b068fc378daa952ba7f163c4a11628f55a4df523b3ef",
            "0x0000000000000000000000000000000000000000000000000000000000000000",
            "0x0000000000000000000000004b7e14dac8b2713e6481c0e4beddda137c2e8a83"
          ],
          "data": "0x000000000000000000000000000000000000000000000000000000028fa6ae00",
          "blockHash": "0x48abf3f7f78fc7aee27c885e46dc44d534f516a864c7316690ef8c9f00230dc3",
          "blockNumber": "0x24a36c6",
          "blockTimestamp": "0x69a7cce3",
          "transactionHash": "0x1dc2e869386c477648b968ffcdb1632062b139789693615a7848f6b4c731b792",
          "transactionIndex": "0x0",
          "logIndex": "0x0",
          "removed": false
        }
      ],
      "logsBloom": "0x00000000000000000000000000000000000000000000000000000000000000000000000000000000000000000800000000000000000000000000000000000000000000000000000000000008000000000000000010000000000000000000000000000000020000000000000000000800000000000000000000400010000020000000000000000000000000000200000000000000000000000000000000000000000000000000000000000000000000000000000000000000000000000000000000000002000000000000000000000000000000100000000000000000000020000000000000000000000000000000000000000000000000000000000000000000",
      "type": "0x2",
      "transactionHash": "0x1dc2e869386c477648b968ffcdb1632062b139789693615a7848f6b4c731b792",
      "transactionIndex": "0x0",
      "blockHash": "0x48abf3f7f78fc7aee27c885e46dc44d534f516a864c7316690ef8c9f00230dc3",
      "blockNumber": "0x24a36c6",
      "gasUsed": "0x11287",
      "effectiveGasPrice": "0x4a41a5",
      "blobGasPrice": "0x1",
      "from": "0x4b7e14dac8b2713e6481c0e4beddda137c2e8a83",
      "to": "0xbed7b33b74b6003a009adee7691bcc4394e64511",
      "contractAddress": null
    },
    {
      "status": "0x1",
      "cumulativeGasUsed": "0xb34a",
      "logs": [
        {
          "address": "0xbed7b33b74b6003a009adee7691bcc4394e64511",
          "topics": [
            "0x8c5be1e5ebec7d5bd14f71427d1e84f3dd0314c0f7b2291e5b200ac8c7c3b925",
            "0x0000000000000000000000004b7e14dac8b2713e6481c0e4beddda137c2e8a83",
            "0x00000000000000000000000049ea2e18816cdbdcd011cbf0401d0c8821a8b474"
          ],
          "data": "0x000000000000000000000000000000000000000000000000000000028fa6ae00",
          "blockHash": "0x12e22698860918db0d9d07de783bdd6ff1fe67bdea11b6d9464fadf3d439e872",
          "blockNumber": "0x24a36c7",
          "blockTimestamp": "0x69a7cce3",
          "transactionHash": "0x236deb80d4a72ef07ecafe880f0d1ecbb87f82730ff304b47e4e5ffc605e1303",
          "transactionIndex": "0x0",
          "logIndex": "0x0",
          "removed": false
        }
      ],
      "logsBloom": "0x00000000000000000000000000000000000000000000000000000000000000000000000000000000000000000800000000000000000000000000000000200000000000000000000000000000000000000000000010000000000000000000000000000000000000000000000000000000000000000000000000400000000020000000008000000000000000000200000000000000000000000000000000000000020000000000000000000000000000000000000000000000000000000000000000000000000000000000000000000040000000100000000000000000000000000010000000000000800000000000000000000000000000000000000000000000",
      "type": "0x2",
      "transactionHash": "0x236deb80d4a72ef07ecafe880f0d1ecbb87f82730ff304b47e4e5ffc605e1303",
      "transactionIndex": "0x0",
      "blockHash": "0x12e22698860918db0d9d07de783bdd6ff1fe67bdea11b6d9464fadf3d439e872",
      "blockNumber": "0x24a36c7",
      "gasUsed": "0xb34a",
      "effectiveGasPrice": "0x42e26e",
      "blobGasPrice": "0x1",
      "from": "0x4b7e14dac8b2713e6481c0e4beddda137c2e8a83",
      "to": "0xbed7b33b74b6003a009adee7691bcc4394e64511",
      "contractAddress": null
    },
    {
      "status": "0x1",
      "cumulativeGasUsed": "0x956bd",
      "logs": [
        {
          "address": "0xbed7b33b74b6003a009adee7691bcc4394e64511",
          "topics": [
            "0xddf252ad1be2c89b69c2b068fc378daa952ba7f163c4a11628f55a4df523b3ef",
            "0x0000000000000000000000004b7e14dac8b2713e6481c0e4beddda137c2e8a83",
            "0x0000000000000000000000006c40b13536b71c2be81ea2ce80cc0f0962647ac5"
          ],
          "data": "0x00000000000000000000000000000000000000000000000000000002540be400",
          "blockHash": "0x12e22698860918db0d9d07de783bdd6ff1fe67bdea11b6d9464fadf3d439e872",
          "blockNumber": "0x24a36c7",
          "blockTimestamp": "0x69a7cce3",
          "transactionHash": "0x7c238803e2723d146ee22f8a1902e7328ef631facf698f4fed3921b84f8ce35e",
          "transactionIndex": "0x1",
          "logIndex": "0x1",
          "removed": false
        },
        {
          "address": "0xbed7b33b74b6003a009adee7691bcc4394e64511",
          "topics": [
            "0xddf252ad1be2c89b69c2b068fc378daa952ba7f163c4a11628f55a4df523b3ef",
            "0x0000000000000000000000004b7e14dac8b2713e6481c0e4beddda137c2e8a83",
            "0x0000000000000000000000004b7e14dac8b2713e6481c0e4beddda137c2e8a83"
          ],
          "data": "0x000000000000000000000000000000000000000000000000000000003b9aca00",
          "blockHash": "0x12e22698860918db0d9d07de783bdd6ff1fe67bdea11b6d9464fadf3d439e872",
          "blockNumber": "0x24a36c7",
          "blockTimestamp": "0x69a7cce3",
          "transactionHash": "0x7c238803e2723d146ee22f8a1902e7328ef631facf698f4fed3921b84f8ce35e",
          "transactionIndex": "0x1",
          "logIndex": "0x2",
          "removed": false
        },
        {
          "address": "0x6c40b13536b71c2be81ea2ce80cc0f0962647ac5",
          "topics": [
            "0x039ad854736757070884dd787ef1a7f58db33546639d1f3efddcf4a33fb8997e",
            "0x0000000000000000000000000000000000000000000000000000000000000000",
            "0x00000000000000000000000082300bd7c3958625581cc2f77bc6464dcecdf3e5"
          ],
          "data": "0x",
          "blockHash": "0x12e22698860918db0d9d07de783bdd6ff1fe67bdea11b6d9464fadf3d439e872",
          "blockNumber": "0x24a36c7",
          "blockTimestamp": "0x69a7cce3",
          "transactionHash": "0x7c238803e2723d146ee22f8a1902e7328ef631facf698f4fed3921b84f8ce35e",
          "transactionIndex": "0x1",
          "logIndex": "0x3",
          "removed": false
        },
        {
          "address": "0x6c40b13536b71c2be81ea2ce80cc0f0962647ac5",
          "topics": [
            "0x8be0079c531659141344cd1fd0a4f28419497f9722a3daafe3b4186f6b6457e0",
            "0x0000000000000000000000000000000000000000000000000000000000000000",
            "0x00000000000000000000000049ea2e18816cdbdcd011cbf0401d0c8821a8b474"
          ],
          "data": "0x",
          "blockHash": "0x12e22698860918db0d9d07de783bdd6ff1fe67bdea11b6d9464fadf3d439e872",
          "blockNumber": "0x24a36c7",
          "blockTimestamp": "0x69a7cce3",
          "transactionHash": "0x7c238803e2723d146ee22f8a1902e7328ef631facf698f4fed3921b84f8ce35e",
          "transactionIndex": "0x1",
          "logIndex": "0x4",
          "removed": false
        },
        {
          "address": "0xacf26743a50f3cfab8ffc00cec7661275b7355e2",
          "topics": [
            "0x039ad854736757070884dd787ef1a7f58db33546639d1f3efddcf4a33fb8997e",
            "0x0000000000000000000000000000000000000000000000000000000000000000",
            "0x00000000000000000000000082300bd7c3958625581cc2f77bc6464dcecdf3e5"
          ],
          "data": "0x",
          "blockHash": "0x12e22698860918db0d9d07de783bdd6ff1fe67bdea11b6d9464fadf3d439e872",
          "blockNumber": "0x24a36c7",
          "blockTimestamp": "0x69a7cce3",
          "transactionHash": "0x7c238803e2723d146ee22f8a1902e7328ef631facf698f4fed3921b84f8ce35e",
          "transactionIndex": "0x1",
          "logIndex": "0x5",
          "removed": false
        },
        {
          "address": "0xacf26743a50f3cfab8ffc00cec7661275b7355e2",
          "topics": [
            "0x8be0079c531659141344cd1fd0a4f28419497f9722a3daafe3b4186f6b6457e0",
            "0x0000000000000000000000000000000000000000000000000000000000000000",
            "0x0000000000000000000000006c40b13536b71c2be81ea2ce80cc0f0962647ac5"
          ],
          "data": "0x",
          "blockHash": "0x12e22698860918db0d9d07de783bdd6ff1fe67bdea11b6d9464fadf3d439e872",
          "blockNumber": "0x24a36c7",
          "blockTimestamp": "0x69a7cce3",
          "transactionHash": "0x7c238803e2723d146ee22f8a1902e7328ef631facf698f4fed3921b84f8ce35e",
          "transactionIndex": "0x1",
          "logIndex": "0x6",
          "removed": false
        },
        {
          "address": "0xbed7b33b74b6003a009adee7691bcc4394e64511",
          "topics": [
            "0x8c5be1e5ebec7d5bd14f71427d1e84f3dd0314c0f7b2291e5b200ac8c7c3b925",
            "0x0000000000000000000000006c40b13536b71c2be81ea2ce80cc0f0962647ac5",
            "0x0000000000000000000000006c40b13536b71c2be81ea2ce80cc0f0962647ac5"
          ],
          "data": "0x00000000000000000000000000000000000000000000000000000002540be400",
          "blockHash": "0x12e22698860918db0d9d07de783bdd6ff1fe67bdea11b6d9464fadf3d439e872",
          "blockNumber": "0x24a36c7",
          "blockTimestamp": "0x69a7cce3",
          "transactionHash": "0x7c238803e2723d146ee22f8a1902e7328ef631facf698f4fed3921b84f8ce35e",
          "transactionIndex": "0x1",
          "logIndex": "0x7",
          "removed": false
        },
        {
          "address": "0x49ea2e18816cdbdcd011cbf0401d0c8821a8b474",
          "topics": [
            "0x8d01162be79b9dd1c1998ba06251c39e082a5d03b2bf6def0c975e79ddd873d8",
            "0x0000000000000000000000006c40b13536b71c2be81ea2ce80cc0f0962647ac5"
          ],
          "data": "0x00000000000000000000000000000000000000000000000000000000000000400000000000000000000000000000000000000000000000000000000000000080000000000000000000000000000000000000000000000000000000000000000c646f6e616c64207472756d70000000000000000000000000000000000000000000000000000000000000000000000000000000000000000000000000000000055452554d50000000000000000000000000000000000000000000000000000000",
          "blockHash": "0x12e22698860918db0d9d07de783bdd6ff1fe67bdea11b6d9464fadf3d439e872",
          "blockNumber": "0x24a36c7",
          "blockTimestamp": "0x69a7cce3",
          "transactionHash": "0x7c238803e2723d146ee22f8a1902e7328ef631facf698f4fed3921b84f8ce35e",
          "transactionIndex": "0x1",
          "logIndex": "0x8",
          "removed": false
        }
      ],
      "logsBloom": "0x00000000000020000000000000008000000000000000000002800000002000000000200000004000000000000800000000000000000000000000000000200000000000000000000000010008000000000401000052000000000000000000000000000000020000000000000000000808000000000000008000400010000020400000008000000000000000002200000000000000000000000000000000020000020000000000000000010000000080000000000000000000000000000000000000000002000000000000000000080040000000100000000008000002000020000010002000000000800000000000000000000000000000000000000000080000",
      "type": "0x2",
      "transactionHash": "0x7c238803e2723d146ee22f8a1902e7328ef631facf698f4fed3921b84f8ce35e",
      "transactionIndex": "0x1",
      "blockHash": "0x12e22698860918db0d9d07de783bdd6ff1fe67bdea11b6d9464fadf3d439e872",
      "blockNumber": "0x24a36c7",
      "gasUsed": "0x8a373",
      "effectiveGasPrice": "0x42e26e",
      "blobGasPrice": "0x1",
      "from": "0x4b7e14dac8b2713e6481c0e4beddda137c2e8a83",
      "to": "0x49ea2e18816cdbdcd011cbf0401d0c8821a8b474",
      "contractAddress": null
    }
  ],
  "libraries": [],
  "pending": [],
  "returns": {},
  "timestamp": 1772604644140,
  "chain": 84532,
  "commit": "8b55482"
}